:020000040800F2
:1000000000000220A9260008C10D0008C30D000849
:10001000C50D0008C70D0008C90D0008000000004C
:10002000000000000000000000000000CB0D0008F0
:10003000CD0D000800000000CF0D0008D10D000814
:10004000F9260008F9260008F9260008F926000814
:10005000F9260008F926000849060008F9260008D4
:10006000F9260008F9260008F9260008F9260008F4
:10007000F9260008F9260008F9260008F9260008E4
:10008000D90D0008F9260008F9260008F92600080D
:10009000F9260008F9260008F9260008F9260008C4
:1000A000F9260008F9260008F9260008F9260008B4
:1000B000F9260008F9260008F9260008F9260008A4
:1000C000F9260008F9260008F9260008F926000894
:1000D000F9260008F9260008F9260008F926000884
:1000E000F9260008F9260008F9260008F926000874
:1000F000F9260008F9260008F9260008F926000864
:10010000F9260008F9260008F9260008F926000853
:10011000F9260008F9260008F9260008F926000843
:10012000F9260008F9260008F9260008F926000833
:10013000F92600080000000000000000F926000871
:10014000F9260008F9260008F9260008F926000813
:10015000F9260008F9260008F9260008F926000803
:10016000F9260008F9260008F9260008F9260008F3
:10017000F9260008F9260008F9260008000000000A
:1001800000000000F9260008000000000000000048
:10019000F92600080000000000000000F926000811
:1001A000000000000000000000000000F926000828
:1001B000F9260008F9260008F9260008F9260008A3
:0401C000F926000814
:1001C40010B5054C237833B9044B13B10448AFF38D
:1001D40000800123237010BD108001200000000066
:1001E4005427000808B5034B1BB103490348AFF378
:1001F400008008BD0000000014800120542700087E
:1002040053B94AB9002908BF00281CBF4FF0FF3179
:100214004FF0FF3000F088B9ADF1080C6DE904CE61
:1002240000F006F8DDF804E0DDE9022304B07047CD
:100234002DE9F047089D8E4604468846002B4AD196
:100244008A42174662D9B2FA82F64EB1C6F1200349
:1002540001FA06F820FA03F3B74043EA0808B44069
:100264004FEA174E1FFA87FCB8FBFEF1230C0EFB76
:10027400118843EA084301FB0CF29A4209D9FB189E
:1002840001F1FF3080F0EA809A4240F2E7800239BF
:100294003B449A1AA3B2B2FBFEF00EFB102243EACF
:1002A400024300FB0CFC9C4509D9FB1800F1FF320A
:1002B40080F0D6809C4540F2D3803B44023840EA2B
:1002C4000140A3EB0C0300211DB1F3400022C5E95A
:1002D4000032BDE8F0878B4205D90DB1C5E90001B4
:1002E40000210846F5E7B3FA83F1002946D17345A6
:1002F40002D3824200F20581841A6EEB03020120CC
:100304009046002DE5D0C5E90048E2E7002A00F058
:100314009080B2FA82F6002E40F0A4808A1A030C70
:100324004FEA174E80B2BCB20121B2FBFEFC0EFBB9
:100334001C2243EA024304FB0CF29A4207D9FB183D
:100344000CF1FF3802D29A4200F2E080C4469B1AB4
:10035400B3FBFEF20EFB123340EA034302FB04F448
:100364009C4207D9FB1802F1FF3002D29C4200F2F2
:10037400CA8002461B1B42EA0C40A5E7C1F12006D5
:100384008B4022FA06F71F430EFA01F420FA06F313
:100394002EFA06FE4FEA1749234300FA01F81FFA22
:1003A40087FCBEFBF9F01C0C09FB10EE44EA0E447A
:1003B40000FB0CFEA64502FA01F209D93C1900F132
:1003C400FF3A80F09C80A64540F2998002383C4474
:1003D400A4EB0E041FFA83FEB4FBF9F309FB1344E8
:1003E4004EEA044403FB0CFCA44508D93C1903F170
:1003F400FF3E80F08280A4457FD9023B3C4443EA1F
:100404000040A4EB0C04A0FB02EC64457346E146F7
:1004140062D35FD05DB1B8EB030264EB090404FA64
:1004240006F622FA01F31E43CC40C5E9006400211C
:100434004FE7B1FBF2FC010C41EA0E4180B240EA05
:1004440001423B4638463C46B846BE462026B1FBF0
:10045400F7F1A2EB080241EA0C4166E7014618E70E
:1004640010462CE7C6F120022EFA02F3B740B14041
:1004740020FA02F24FEA174E0A43B3FBFEF8BCB26D
:100484000EFB1833110C41EA034108FB04F9B04098
:1004940089454FEA104380B23ED9791808F1FF3CF0
:1004A40001D289451FD8A1EB0901B1FBFEF909FB73
:1004B40004F80EFB191192B242EA0142424529D2D4
:1004C400BA1809F1FF31C4D24245C2D2A9F10201DE
:1004D4003A44BEE7F0459DD2BEEB02036CEB070C39
:1004E4000138E14696E7A7EB09094944A8F1020C53
:1004F400B1FBFEF909FB04F8DBE773467FE75046DE
:1005040066E70846FDE63B44023A33E7ACF1020CE9
:100514003B441CE749469CE7A1EB0901C446B1FBF7
:10052400FEF909FB04F8C4E7704700BF2DE9F04F5A
:1005340089B00024039404940594069407940094C9
:100544002F4B1A6B42F080021A631A6B02F080027E
:100554000092009A01941A6B42F001021A631A6B1A
:1005640002F001020192019A02941A6B42F0020213
:100574001A631B6B03F002030293029B4FF4404B7C
:10058400CDF80CB001260496DFF87CA003A95046F0
:1005940001F092FC4FF44079CDF80C90DFF86C80B8
:1005A40003A9404601F088FC4FF410470397154D0A
:1005B40003A9284601F080FC22465946504601F022
:1005C4006BFD22464946404601F066FD2246394607
:1005D400284601F061FD03964FF4881304930596B1
:1005E40003A9284601F068FC22460221062001F0F6
:1005F400D5FF062001F0E2FF09B0BDE8F08F00BF8F
:10060400003802400000024000080240000402409A
:1006140000B583B000210191094B1A6B42F400121A
:100624001A631B6B03F400130193019B0A46102009
:1006340001F0B4FF102001F0C1FF03B05DF804FB2A
:100644000038024010B502F01DF8634B1B68C31A52
:10065400C82B31D9604B1860604B1B68052B0CD03C
:100664005E4A1368013313605C4B1B68052B23D867
:10067400DFE803F00726425E7A96584B00221A60A0
:10068400F2E7012000F0DAFA554800F0CBFA554CB5
:100694002268D36823F40073D360606A01F029FEF2
:1006A4004FF48053504A5149514801F0EDFD2268FE
:1006B400D36843F40073D360012001F0F5FC10BD4E
:1006C400012000F0BBFA4B4800F0ACFA454C22681C
:1006D400D36823F40073D360606A01F00AFE4FF418
:1006E4008053414A4449424801F0CEFD2268D36810
:1006F40043F40073D360DFE7012000F09FFA3F4822
:1007040000F090FA374C2268D36823F40073D36066
:10071400606A01F0EEFD4FF48053334A384934489F
:1007240001F0B2FD2268D36843F40073D360C3E7D9
:10073400012000F083FA334800F074FA294C22684F
:10074400D36823F40073D360606A01F0D2FD4FF4E0
:100754008053254A2C49264801F096FD2268D36827
:1007640043F40073D360A7E7012000F067FA274839
:1007740000F058FA1B4C2268D36823F40073D3604A
:10078400606A01F0B6FD4FF48053174A20491848B7
:1007940001F07AFD2268D36843F40073D3608BE7D9
:1007A400012000F04BFA1B4800F03CFA0D4C226883
:1007B400D36823F40073D360606A01F09AFD4FF4A8
:1007C4008053094A14490A4801F05EFD2268D3683F
:1007D40043F40073D3606FE72C8001203080012044
:1007E4006C270008DC8001203C0400400440012008
:1007F40034800120742700080400012080270008A9
:1008040004C000208C27000804000020942700085E
:10081400044000209C2700080480002072B6FEE7F4
:1008240000B58FB000230A930B930C930D93089398
:1008340009930193029303930493059306930793F7
:1008440036484FF08042026043608360344A126845
:10085400013AC2600361836100F08AFC002850D130
:100864004FF480530A930AA92C4800F0E7FD0028AE
:1008740049D12A4800F0A8FC002846D10023089357
:10088400099308A9254800F06BFF00283FD10022F6
:10089400019202920392059201A9204800F024FDDE
:1008A400002836D1002300931E4A116B41F4001135
:1008B4001163126B02F400120092009A1A481B4A48
:1008C40002604FF0C062426040228260C3604FF415
:1008D400806202614FF4805242614FF4804282612F
:1008E4004FF48072C2614FF400320262436201F03D
:1008F40065FC80B9094A0C4B53629A630FB05DF8EA
:1009040004FBFFF78BFFFFF789FFFFF787FFFFF774
:1009140085FFFFF783FFFFF781FF00BFDC80012025
:10092400000000200038024034800120886002402A
:1009340000B58FB000230A930B930C930D93089387
:1009440009930193029303930493059306930793E6
:100954001E481F4A02604360836040F6FF72C26013
:100964000361836100F004FC28BB4FF480530A93B5
:100974000AA9164800F062FDF8B9144800F050FCCA
:10098400E8B900230893099308A9104800F0E8FE89
:10099400B8B96023019300230293039305930822BB
:1009A40001A90A4800F0CFFC68B9084800F082FAAF
:1009B4000FB05DF804FBFFF731FFFFF72FFFFFF7E0
:1009C4002DFFFFF72BFFFFF729FF00BF94800120C5
:1009D4000004004000B595B03422002107A801F0BE
:1009E4008AFE0023029303930493059306930093D2
:1009F400194A116C41F080511164126C02F080525A
:100A04000092009A019315490A6822F4404242F484
:100A140080420A600A6802F440420192019A02226A
:100A2400079201220A9210220B920D9307A801F05B
:100A340021F868B90F2302930021039104910591D1
:100A4400069102A800F0D2FE20B915B05DF804FBAF
:100A5400FFF7E4FEFFF7E2FE0038024000700040BA
:100A640008B501F0E9FDFFF7B5FFFFF75FFD00F002
:100A74006DF9FFF7CDFDFFF7D3FEFFF759FF08210E
:100A84000B4800F0EBFD0B4C0021204600F064FD08
:100A94004FF48053084A0949094801F0F5FB094815
:100AA40000F0C0F82268D36843F40073D360FEE713
:100AB40094800120DC8001203C040040044001209B
:100AC400348001206C27000882B000EB4000002332
:100AD400019304E000BF00BF019B01330193019B1C
:100AE4008342F7D302B0704710B51420FFF7ECFF30
:100AF400094CA36943F40043A3611420FFF7E4FF06
:100B0400A36943F00043A3611420FFF7DDFFA36949
:100B140043F40043A36110BD0008024010B504462D
:100B24003D4A936943F48043936110F0800F41D1AF
:100B34003A4A936943F00043936114F0400F40D064
:100B4400364A936943F48053936114F0200F3ED0E6
:100B5400334A936943F40073936114F0100F3CD04B
:100B64002F4A936943F480739361FFF7BDFF14F038
:100B7400080F38D0294A936943F40043936114F071
:100B8400040F36D0254A936943F48053936114F0DB
:100B9400020F34D0224A936943F40073936114F032
:100BA400010F32D01E4A936943F480739361FFF7B7
:100BB4009BFF10BDA2F50062936943F40043936167
:100BC400BBE7164A936943F080539361BDE7144A27
:100BD400936943F000739361BFE7114A936943F04B
:100BE40080739361C1E70D4A936943F000439361B5
:100BF400C5E70A4A936943F080539361C7E7084AFB
:100C0400936943F000739361C9E7054A936943F01C
:100C140080739361CBE700BF0008024000000240EC
:100C24000004024038B50546002403E0FFF776FFD0
:100C34000134E4B2285D0028F8D138BD10B504466B
:100C44003F4A936943F08043936110F0800F45D18C
:100C54003C4A936943F00043936114F0400F44D03D
:100C6400384A936943F48053936114F0200F42D0BF
:100C7400354A936943F40073936114F0100F40D024
:100C8400314A936943F480739361FFF72DFF14F0A5
:100C9400080F3CD02B4A936943F40043936114F04A
:100CA400040F3AD0274A936943F48053936114F0B4
:100CB400020F38D0244A936943F40073936114F00B
:100CC400010F36D0204A936943F480739361FFF790
:100CD4000BFF40F6B830FFF7F7FE10BDA2F5006237
:100CE400936943F400439361B7E7164A936943F069
:100CF40080539361B9E7144A936943F00073936195
:100D0400BBE7114A936943F080739361BDE70D4AD1
:100D1400936943F000439361C1E70A4A936943F03E
:100D240080539361C3E7084A936943F00073936166
:100D3400C5E7054A936943F080739361C7E700BF31
:100D440000080240000002400004024008B5194BAC
:100D54001A6B42F001021A631A6B42F002021A6320
:100D64001A6B42F004021A63134A136843F0824375
:100D7400136002F58062136843F4A023136002F544
:100D84008062136843F0A043136047F23050FFF7CA
:100D94009BFE3320FFF752FF3220FFF74FFF0C205A
:100DA400FFF74CFF2820FFF749FF0120FFF746FF1C
:100DB40008BD00BF0038024000000240FEE7FEE725
:100DC400FEE7FEE7FEE770477047704708B501F09D
:100DD4004DFC08BD08B5024801F09EFA08BD00BFED
:100DE4003480012082B0002100910B4B5A6C42F4F4
:100DF40080425A645A6C02F480420092009A019133
:100E04001A6C42F080521A641B6C03F080530193F5
:100E1400019B02B0704700BF0038024010B582B099
:100E24000368B3F1804F04D01E4A93422CD002B021
:100E340010BD0446002300931B4A116C41F00101CC
:100E44001164126C02F001020092009A1748184AC9
:100E540002604FF0C06242608360C3604FF48062FE
:100E640002614FF4805242614FF480428261C36157
:100E74000362436201F0A2F918B90C4B63629C63EC
:100E8400D5E7FFF7CBFCF8E700230193064B1A6C78
:100E940042F002021A641B6C03F002030193019BEB
:100EA400C5E700BF00040040003802403480012040
:100EB4008860024000B587B0002301930293039336
:100EC4000493059302680E4B9A4202D007B05DF872
:100ED40004FB002300930B4B1A6B42F002021A63CB
:100EE4001B6B03F002030093009B01230193022375
:100EF4000293059301A9044800F0DEFFE6E700BF72
:100F040000040040003802400004024030B4036A88
:100F1400026A22F0010202624268846924F0730CBE
:100F24000C6844EA0C0423F0020C8B6843EA0C03BB
:100F3400114DA84203D005F58065A84205D123F0E0
:100F44000803CD682B4323F004030B4DA84203D0C0
:100F540005F58065A84207D122F440724D6945EA3F
:100F6400020C8A6942EA0C02426084614A68426364
:100F7400036230BC704700BF0000014030B4036A14
:100F8400026A22F4807202624268C46924F0730C1B
:100F94000C6844EA0C0523F400738C6843EA0423C8
:100FA400114CA04203D004F58064A04206D123F47E
:100FB4000063CC6843EA042323F480630A4CA04210
:100FC40003D004F58064A04207D122F440524C6956
:100FD40042EA04128C6942EA04124260C5614A681A
:100FE400C263036230BC70470000014030B4036A3E
:100FF400026A22F4805202624468C26922F4E64220
:101004000D6842EA052223F400538D6843EA053350
:10101400094DA84203D005F58065A84204D124F403
:1010240080444D6944EA85144460C2614A6802649C
:10103400036230BC704700BF0000014010B4036A73
:10104400046A24F001040462846924F0F00C4CEA7C
:10105400021223F00A030B43826103625DF8044B1E
:10106400704710B4036A046A24F0100404628469AB
:1010740024F4704C4CEA023223F0A00343EA011337
:10108400826103625DF8044B7047836823F0700348
:101094000B4343F0070383607047704770470000B9
:1010A4000368324A904212D0B0F1804F0FD0A2F5BB
:1010B4007C4290420BD002F58062904207D002F548
:1010C4008062904203D002F57842904203D123F02B
:1010D40070034A681343254A90422AD0B0F1804FE6
:1010E40027D0A2F57C42904223D002F58062904240
:1010F4001FD002F5806290421BD002F578429042E4
:1011040017D002F57052904213D002F580629042DB
:101114000FD002F5806290420BD0A2F59832904233
:1011240007D002F58062904203D002F580629042BB
:1011340003D123F44073CA68134323F080034A693C
:1011440013438A68C2620A688262084A904203D0E2
:1011540002F58062904201D10A690263026842F09A
:1011640004020260012242610360704700000140F2
:1011740040B310B5044690F83D30F3B1022384F82F
:101184003D30214651F8040BFFF78AFF012384F810
:10119400463084F83E3084F83F3084F8403084F898
:1011A400413084F8423084F8433084F8443084F881
:1011B400453084F83D30002010BD80F83C30FFF706
:1011C4002DFEDBE70120704740B310B5044690F8CC
:1011D4003D30F3B1022384F83D30214651F8040B2D
:1011E400FFF75EFF012384F8463084F83E3084F82C
:1011F4003F3084F8403084F8413084F8423084F839
:10120400433084F8443084F8453084F83D3000207D
:1012140010BD80F83C30FFF740FFDBE7012070474A
:1012240040B310B5044690F83D30F3B1022384F87E
:101234003D30214651F8040BFFF732FF012384F8B7
:10124400463084F83E3084F83F3084F8403084F8E7
:10125400413084F8423084F8433084F8443084F8D0
:10126400453084F83D30002010BD80F83C30FFF755
:1012740015FFDBE70120704730B4036A026A22F0ED
:10128400100202624468826922F4E6420D6842EA6E
:10129400052223F020038D6843EA0513114DA8426B
:1012A40003D005F58065A84206D123F08003CD68FC
:1012B40043EA051323F040030A4DA84203D005F581
:1012C4008065A84207D124F440644D6944EA85044A
:1012D4008D6944EA8504446082614A6882630362DA
:1012E40030BC70470000014090F83C30012B28D0FE
:1012F40010B50446012380F83C300C2A1CD8DFE8E2
:1013040002F0071B1B1B0C1B1B1B111B1B1B1600BA
:101314000068FFF7FBFD00200FE00068FFF7ACFF5B
:1013240000200AE00068FFF729FE002005E00068BD
:10133400FFF75CFE002000E00120002384F83C302D
:1013440010BD0220704738B590F83C30012B66D0B0
:1013540004460D46012380F83C300C2A5AD8DFE8B5
:1013640002F0075959591B595959305959594400D0
:101374000068FFF7CBFD2268936943F0080393618B
:101384002268936923F004039361226893692969AD
:101394000B43936100203EE00068FFF76DFF226875
:1013A400936943F4006393612268936923F480632F
:1013B400936122689369296943EA012393610020B8
:1013C40029E00068FFF7DAFD2268D36943F00803D7
:1013D400D3612268D36923F00403D3612268D369FB
:1013E40029690B43D361002015E00068FFF7FEFD77
:1013F4002268D36943F40063D3612268D36923F478
:101404008063D3612268D369296943EA0123D361E4
:10141400002000E00120002384F83C3038BD022085
:10142400FCE710B4846824F47F4C42EA03220A43A4
:1014340042EA0C0282605DF8044B704790F83C303D
:10144400012B78D010B50446012380F83C300223E8
:1014540080F83D300268936823F47F4323F07703D8
:1014640093600B68602B4CD023D8402B54D011D8F8
:10147400202B03D00AD80BB1102B05D119462068B4
:10148400FFF703FE002028E0012026E0302BF5D0F2
:10149400012022E0502B0AD1CA6849680068FFF78E
:1014A400CDFD50212068FFF7F0FD002015E001205C
:1014B40013E0B3F5805F3AD0B3F5005F14D0702B1E
:1014C40037D1CB684A6889680068FFF7AAFF2268A9
:1014D400936843F0770393600020012384F83D3040
:1014E400002384F83C3010BDCB684A6889680068E2
:1014F400FFF797FF2268936843F4804393600020CA
:10150400EBE7CA6849680068FFF7ABFD6021206813
:10151400FFF7BBFD0020E0E7CA6849680068FFF7F1
:101524008DFD40212068FFF7B0FD0020D5E70020A5
:10153400D3E70120D1E70220704701F01F014FF0EB
:10154400010C0CFA01FC036A23EA0C030362036A2C
:101554008A4013430362704710B5044608460029C5
:1015640042D194F83E30DBB2013B18BF0123002B7B
:101574006ED1002851D1022384F83E300122014665
:101584002068FFF7DAFF2368334A934203D002F559
:101594008062934203D15A6C42F400425A64236835
:1015A4002D4A934249D0B3F1804F46D0A2F57C42F4
:1015B400934242D002F5806293423ED002F58062AB
:1015C40093423AD002F57842934236D002F57052F3
:1015D400934232D0A2F5943293422ED01A6842F04C
:1015E40001021A60002032E0042908D008290DD035
:1015F40094F84130DBB2013B18BF0123B7E794F8FC
:101604003F30DBB2013B18BF0123B0E794F8403010
:10161400DBB2013B18BF0123A9E7042805D0082841
:1016240007D0022384F84130A8E7022384F83F302E
:10163400A4E7022384F84030A0E79A6802F0070286
:10164400062A07D01A6842F001021A60002010BD71
:101654000120FCE70020FAE70000014010B5044631
:101664000846002942D194F83E30DBB2013B18BF52
:101674000123002B6ED1002851D1022384F83E307F
:10168400012201462068FFF758FF2368334A93423A
:1016940003D002F58062934203D15A6C42F40042B3
:1016A4005A6423682D4A934249D0B3F1804F46D0FF
:1016B400A2F57C42934242D002F5806293423ED02E
:1016C40002F5806293423AD002F57842934236D0D2
:1016D40002F57052934232D0A2F5943293422ED046
:1016E4001A6842F001021A60002032E0042908D08E
:1016F40008290DD094F84130DBB2013B18BF012317
:10170400B7E794F83F30DBB2013B18BF0123B0E7E1
:1017140094F84030DBB2013B18BF0123A9E7042849
:1017240005D0082807D0022384F84130A8E7022313
:1017340084F83F30A4E7022384F84030A0E79A6895
:1017440002F00702062A07D01A6842F001021A6062
:10175400002010BD0120FCE70020FAE70000014052
:1017640090F83C20012A3DD010B40346012280F8B1
:101774003C20022280F83D2002685068946820F0E2
:10178400700C086840EA0C0050601A6816488242DF
:101794001AD0B2F1804F17D0A0F57C40824213D00A
:1017A40000F5806082420FD000F5806082420BD049
:1017B40000F57840824207D000F57050824203D091
:1017C400A0F59430824204D124F080044968214376
:1017D4009160012283F83D20002083F83C005DF8ED
:1017E400044B70470220704700000140002800F0BD
:1017F4009B8070B50D4604464F4B1B6803F00F03E6
:101804008B4208D2CBB24C4A1370136803F00F0317
:101814008B4240F08B80236813F0020F17D013F033
:10182400040F04D0454A936843F4E053936023685B
:1018340013F0080F04D0414A936843F46043936063
:101844003E4A936823F0F003A1680B439360236836
:1018540013F0010F32D06368012B21D09A1E012AA4
:1018640025D9364A126812F0020F61D033498A68CA
:1018740022F0030213438B6000F004FF06462F4B53
:101884009B6803F00C036268B3EB820F16D000F080
:10189400F9FE801B41F288339842F0D9032042E0DC
:1018A400264A126812F4003FE0D101203BE0234AAB
:1018B400126812F0007FD9D1012034E01E4B1B685E
:1018C40003F00F03AB4207D9EAB21B4B1A701B6833
:1018D40003F00F03AB422DD1236813F0040F06D09D
:1018E400164A936823F4E053E1680B43936023683A
:1018F40013F0080F07D0114A936823F46043216959
:1019040043EAC103936000F021F80C4B9B68C3F3D6
:1019140003130B4AD35CD8400A4B18600A4B18686F
:1019240000F064FE002070BD012070470120FAE73A
:101934000120F8E70120F6E7003C024000380240AD
:10194400AC2700080C8001200880012008B5464B14
:101954009B6803F00C03082B05D00C2B43D0042BFD
:101964007FD1424819E0404B5A6802F03F025B685D
:1019740013F4800F12D03C4B5968C1F388113B48D3
:101984000023A1FB0001FEF73BFC374B5B68C3F36C
:10199400014301335B00B0FBF3F008BD324B5868E0
:1019A400C0F388104FEA401CBCEB000C6EEB0E0E2B
:1019B4004FEA8E1343EA9C634FEA8C11B1EB0C019E
:1019C40063EB0E03DB0043EA5173C90011EB000C17
:1019D40043F10003990200234FEA8C2041EA9C5111
:1019E400FEF70EFCD1E7204B5A6802F03F025B6819
:1019F40013F4800F10D01C4B5968C1F388111B4895
:101A04000023A1FB0001FEF7FBFB174B5B68C3F34C
:101A14000273B0FBF3F0C0E7134B5868C0F38810AF
:101A24004FEA401CBCEB000C6EEB0E0E4FEA8E131B
:101A340043EA9C634FEA8C11B1EB0C0163EB0E0398
:101A4400DB0043EA5173C90011EB000C43F10003BE
:101A5400990200234FEA8C2041EA9C51FEF7D0FB07
:101A6400D3E7034899E700BF0038024040787D017E
:101A74000024F400002800F0018270B582B004460E
:101A8400036813F0010F41D0994B9B6803F00C03DA
:101A9400042B32D0964B9B6803F00C03082B27D001
:101AA400934B9B6803F00C030C2B59D06368B3F57C
:101AB400803F5BD0B3F5A02F5ED08D4B1A6822F423
:101AC40080321A601A6822F480221A606368002B3C
:101AD4005CD000F0D7FD0546854B1B6813F4003F2E
:101AE40014D100F0CFFD401B6428F5D90320CCE1CC
:101AF4007F4B5B6813F4800FD2D07D4B1B6813F4CB
:101B0400003F03D06368002B00F0BA81236813F010
:101B1400020F60D0764B9B6813F00C0F4AD0744BC5
:101B24009B6803F00C03082B3FD0714B9B6803F0B8
:101B34000C030C2B69D0E368002B75D06D4B01228C
:101B44001A6000F09FFD0546694B1B6813F0020FF5
:101B540061D100F097FD401B0228F5D9032094E1E0
:101B6400634B5B6813F4800FA0D0C6E7604A136828
:101B740043F480331360A9E75D4B1A6842F4802272
:101B84001A601A6842F480321A609FE700F07AFD06
:101B94000546574B1B6813F4003FB7D000F072FDA5
:101BA400401B6428F5D903206FE1514B5B6813F4A3
:101BB400800FBAD14E4B1B6813F0020F03D0E368B9
:101BC400012B40F05F814A4A136823F0F80321692E
:101BD40043EAC1031360236813F0080F49D0636913
:101BE400002B33D0434B0122C3F8802E00F04AFD72
:101BF40005463F4B5B6F13F0020F3AD100F042FDF4
:101C0400401B0228F5D903203FE1394B5B6813F4EC
:101C1400800F90D1CEE7364A136823F0F803216988
:101C240043EAC1031360D6E7324B00221A6000F086
:101C340029FD05462E4B1B6813F0020FCBD000F094
:101C440021FD401B0228F5D903201EE1294B002267
:101C5400C3F8802E00F016FD0546254B5B6F13F08C
:101C6400020F06D000F00EFD401B0228F5D9032018
:101C74000BE1236813F0040F76D01D4B1B6C13F09B
:101C8400805F33D100230193194B1A6C42F08052C8
:101C94001A641B6C03F080530193019B0125164BBE
:101CA4001B6813F4807F29D0A368012B3AD0052B3D
:101CB4003ED00F4B1A6F22F001021A671A6F22F0FE
:101CC40004021A67A368002B3CD000F0DBFC064634
:101CD400074B1B6F13F0020F45D100F0D3FC801BA0
:101CE40041F288339842F3D90320CEE00025D6E7A9
:101CF4000038024000004742007000406B4A1368FD
:101D040043F48073136000F0BDFC0646674B1B6808
:101D140013F4807FC8D100F0B5FC801B0228F5D9EC
:101D24000320B2E0624A136F43F001031367C9E76B
:101D34005F4B1A6F42F004021A671A6F42F00102F5
:101D44001A67BFE700F09EFC0646594B1B6F13F061
:101D5400020F08D000F096FC801B41F288339842B1
:101D6400F3D9032091E0EDB9A369002B00F08C8036
:101D74004F4A926802F00C02082A54D0022B17D062
:101D84004C4B00221A6600F07DFC0446484B1B684D
:101D940013F0007F45D000F075FC001B0228F5D934
:101DA400032072E0424A136C23F080531364DBE790
:101DB400404B00221A6600F065FC05463C4B1B684C
:101DC40013F0007F06D000F05DFC401B0228F5D91B
:101DD40003205AE0E369226A1343626A43EA8213E6
:101DE400A26A5208013A43EA0243E26A43EA0263FE
:101DF400226B43EA02732E4A53602E4B01221A6669
:101E040000F040FC04462A4B1B6813F0007F06D107
:101E140000F038FC001B0228F5D9032035E000202F
:101E240033E0002031E0012B31D0214B5B6803F417
:101E34008001E26991422CD103F03F02216A8A4277
:101E440029D1616A47F6C0721A40B2EB811F24D1CE
:101E540003F44031A26A5208013AB1EB024F1ED199
:101E640003F07062E16AB2EB016F1AD103F0E04350
:101E7400226BB3EB027F16D1002006E001207047ED
:101E8400012002E0012000E0002002B070BD01202A
:101E9400FBE70120F9E70120F7E70120F5E701203E
:101EA400F3E70120F1E70120EFE700BF00700040F5
:101EB400003802400000474200230F2B00F2E38069
:101EC40070B582B065E085684FEA430E032404FAD6
:101ED4000EF425EA0405CC6804FA0EF42C4384605D
:101EE400446824EA02044A68C2F300129A40224376
:101EF40042605CE0DC08083450F8242003F0070555
:101F0400AD004FF00F0E0EFA05FE22EA0E0E0A691E
:101F1400AA4042EA0E0240F824205CE0062200E0D7
:101F2400002202FA0EF22A430234574D45F82420C7
:101F3400564A94686FEA0C0224EA0C054E6816F4BB
:101F4400801F01D04CEA0405504CA560E46802EA05
:101F540004054E6816F4001F01D04CEA04054B4CEE
:101F6400E560646802EA04054E6816F4003F01D097
:101F74004CEA0405454C6560246822404D6815F41C
:101F8400803F01D04CEA0402404C226001330F2B05
:101F940077D801229A400C6804EA020C32EA04045D
:101FA400F4D14C6804F00304013C012C8BD94A6839
:101FB40002F00302032A09D0C4685D000322AA4088
:101FC40024EA02048A68AA402243C2604A6802F0F2
:101FD4000302022A8ED004684FEA430E032202FA57
:101FE4000EF224EA02044A6802F0030202FA0EF234
:101FF400224302604A6812F4403FC7D00022019293
:10200400234A546C44F480445464526C02F4804275
:102014000192019A9C08A51C1B4A52F8255003F012
:10202400030E4FEA8E0E0F2202FA0EF225EA020583
:10203400184A90423FF474AF02F58062904216D081
:1020440002F58062904214D002F58062904212D070
:1020540002F58062904210D002F5806290420ED068
:1020640002F5806290423FF459AF072259E70122FA
:1020740057E7022255E7032253E7042251E70522DA
:102084004FE702B070BD704700380140003C01408A
:1020940000380240000002400AB18161704709041F
:1020A400816170477047000008B5054B5B690342C6
:1020B40000D108BD024B5861FFF7F4FFF9E700BFF8
:1020C400003C014030B405682C6824F480242C6062
:1020D400046863608368402B05D0036899600368D3
:1020E400DA6030BC704703689A600368D960F8E727
:1020F40010B40368D9B210390A4AA2FB014212098A
:10210400094CA25CC2655F2907D96FF30903043344
:102114008365806D5DF8044B70476FF30903836535
:10212400F7E700BFABAAAAAAA4270008836A8269BA
:1021340092B9012B0AD0022B02D00BB100207047B8
:10214400C36A13F0807F28D100207047C36AB3F1BB
:10215400C07F24D000207047B2F5005F09D0022B65
:1021640025D9032B25D1C36A13F0807F23D1002006
:102174007047032B03D8DFE803F01404140A00208B
:102184007047C36A13F0807F0DD100207047C36A83
:10219400B3F1C07F09D000207047012070470120AF
:1021A40070470120704701207047012070470120CB
:1021B40070470020704701207047000070B5044646
:1021C40000F060FA002C5BD00546022384F8353019
:1021D400002384F834302268136823F00103136069
:1021E40023681A6812F0010F0AD000F04BFA431B5F
:1021F400052BF5D920236365032084F8350070BDD1
:102204001A68204911406268A0680243E0680243EA
:102214002069024360690243A0690243E069024302
:10222400206A02430A43616A04291ED01A602668A0
:10223400756925F00705636A1D43042B07D1A36A5A
:102244001D43E36A1BB12046FFF770FF90B9756127
:102254002046FFF74DFFE26D3F239340836000204B
:102264006065012384F83530C9E7E16A206B0143D6
:102274000A43DBE740236365012084F83500BEE7A9
:102284000120BCE73F8010F038B50446856D90F816
:10229400340001282BD0012084F8340094F8350050
:1022A400C0B2012804D0002384F83430022038BDA1
:1022B400022084F83500002060652046FFF702FF05
:1022C400E26D3F239340AB602268136843F016032A
:1022D4001360236C23B12268136843F0080313606E
:1022E4002268136843F0010313600020DFE7022033
:1022F400DDE790F83530DBB2022B03D08023436551
:1023040001207047052380F835300268136823F0F4
:102314000103136000207047F0B583B00446002326
:102324000193724B1D68724BA3FB0535AD0A876D93
:102334003E68C26D08239340334210D003681A6884
:1023440012F0040F0BD01A6822F004021A60C26D56
:1023540008239340BB60436D43F001034365E26D82
:1023640001239340334209D02268526912F0800F4E
:1023740004D0BB60636D43F002036365E26D042324
:102384009340334209D02268126812F0020F04D03D
:10239400BB60636D43F004036365E26D10239340F7
:1023A400334224D02268126812F0080F1FD0BB6099
:1023B40023681A6812F4802F0DD01B6813F4002FC1
:1023C40004D1236C9BB12046984710E0A36C73B1F1
:1023D400204698470BE01A6812F4807F03D11A68EC
:1023E40022F008021A60236C0BB120469847E26D74
:1023F40020239340334255D02268126812F0100F04
:1024040050D0BB6094F83530DBB2052B0ED0236876
:102414001A6812F4802F33D01B6813F4002F2AD1CA
:10242400636C002B3ED0204698473BE0226813683B
:1024340023F0160313602268536923F08003536169
:10244400236CA3B12268136823F008031360E26DC0
:102454003F239340BB60012384F83530002384F884
:102464003430236D002B3FD0204698473CE0A36CCA
:10247400002BE7D1EBE7E36BA3B12046984711E0CB
:102484001A6812F4807F09D11A6822F010021A60C7
:10249400012384F83530002384F83430E36B0BB126
:1024A40020469847636DFBB1636D13F0010F17D09D
:1024B400052384F835302268136823F00103136080
:1024C400019B01330193AB4204D823681B6813F0CA
:1024D400010FF5D1012384F83530002384F834301A
:1024E400E36C0BB12046984703B0F0BD0C8001208B
:1024F400B5814E1B002807DB00F01F0240090123B1
:102504009340024A42F82030704700BF00E100E0E7
:10251400002808DB0901C9B200F1604000F5614000
:1025240080F80013704700F00F000901C9B2014B95
:102534001954704714ED00E000B500F00700C0F135
:10254400070CBCF1040F28BF4FF0040C031D062B2D
:102554000FD9C31E4FF0FF3E0EFA0CF021EA000122
:1025640099400EFA03FE22EA0E0241EA02005DF8E7
:1025740004FB0023EEE70000074AD36823F4E0637A
:102584001B041B0C000200F4E060034343F0BF6330
:1025940043F40033D360704700ED00E010B5044607
:1025A400054BD868C0F30220FFF7C6FF014620465A
:1025B400FFF7AEFF10BD00BF00ED00E008B5FFF768
:1025C40099FF08BD0138B0F1807F0BD24FF0E023B2
:1025D4005861054AF02182F82310002098610722EF
:1025E4001A6170470120704700ED00E010B5044601
:1025F4000E4B1A784FF47A73B3FBF2F30C4A10685B
:10260400B0FBF3F0FFF7DEFF68B90F2C01D901200E
:102614000AE0002221464FF0FF30FFF7BFFF054BD1
:102624001C60002000E0012010BD00BF04800120D8
:102634000C8001200880012008B50B4B1A6842F475
:1026440000721A601A6842F480621A601A6842F4CE
:1026540080721A600320FFF78FFF0F20FFF7C6FF79
:10266400FEF7C0FB002008BD003C0240034A11688D
:10267400034B1B780B441360704700BF2481012077
:1026840004800120014B1868704700BF2481012099
:10269400034AD2F8883043F47003C2F88830704794
:1026A40000ED00E0DFF834D0FFF7F2FF0C480D49ED
:1026B4000D4A002302E0D458C4500433C4188C4299
:1026C400F9D30A4A0A4C002301E013600432A242FF
:1026D400FBD300F019F8FEF7C3F97047000002209D
:1026E4000000002010800120CC2700081080012069
:1026F40028810120FEE702440346934200D170473B
:1027040003F8011BF9E7000070B50D4D0D4C641B77
:10271400A4100026A64209D10B4D0C4C00F018F869
:10272400641BA4100026A64205D170BD55F8043BD5
:1027340098470136EEE755F8043B98470136F2E72F
:10274400C4270008C4270008C4270008C8270008B5
:10275400F8B500BFF8BC08BC9E467047F8B500BF8A
:08276400F8BC08BC9E4670475A
:10276C0053696E6500000000536177746F6F746875
:10277C0000000000547269616E67756C6172000034
:10278C005069616E6F0000004775697461720000DA
:10279C004472756D0000000000061016000610163D
:1027AC0000000000000000000102030406070809F5
:0827BC0078DAFF7F0100000044
:0427C400E90100081F
:0427C800C50100083F
:1027CC00851E000000080000000800000008000042
:1027DC00FF07000000080000FF0700005D04000078
:1027EC003A0B000052050000F709000064070000D6
:1027FC001A0700001D080000E60500009405000003
:10280C005407000064040000DC090000B905000056
:10281C00D80900002709000035080000D50B00007E
:10282C00230600001D0B0000570600007F08000067
:10283C00410800006E060000910900001607000018
:10284C00B208000007090000DA060000260A0000A2
:10285C00840500001C09000006060000710700003A
:10286C00050700002B07000060080000BC070000F3
:10287C005A0900006C080000090900007C080000DF
:10288C004B080000D8070000D707000078070000AD
:10289C001F080000AB0700006708000016080000C6
:1028AC0070080000070800002108000071070000F4
:1028BC00F0070000E20600000208000028070000F4
:1028CC00140800000008000002080000C208000004
:1028DC00EC070000CF080000E90700004E080000DC
:1028EC0020080000DD07000048080000D5070000A4
:1028FC00280800001F080000D20700005308000041
:10290C00890700004608000071070000000800005D
:10291C0091070000DD070000CA070000EA0700006D
:10292C00F4070000050800001F080000170800004D
:10293C002A0800000F0800001A080000F207000027
:10294C000E080000F307000008080000F407000060
:10295C0015080000FC0700001A080000FA07000028
:10296C000C080000F0070000FA070000EB0700005D
:10297C0010080000E7070000140800000B08000016
:10298C000508000024080000F407000017080000E8
:10299C0001080000F3070000FD070000DF0700003E
:1029AC00FF070000F4070000FE07000013080000FA
:1029BC00E907000013080000EE07000005080000FE
:1029CC00FD070000ED07000009080000E607000005
:1029DC0007080000F4070000F30700000B080000D4
:1029EC000C0800002A080000E30700002008000083
:1029FC00EC070000030800002B080000E7070000AC
:102A0C0048080000E707000018080000E307000072
:102A1C00DE070000EF070000D2070000E10700000E
:102A2C00F4070000E20700002D080000F707000083
:102A3C002708000016080000FF070000230800000C
:102A4C00DB07000009080000E2070000F0070000A7
:102A5C0002080000E507000016080000030800004B
:102A6C00FB0700000D080000EA0700000708000043
:102A7C00DE070000FE070000E3070000F607000079
:102A8C00F9070000F707000012080000F907000022
:102A9C001E080000FC0700001208000006080000D9
:102AAC000308000005080000FF07000006080000EE
:102ABC0003080000010800000F080000F8070000E0
:102ACC0002080000F8070000F0070000FF070000F4
:102ADC00F0070000F7070000010800005C07000089
:102AEC00F70A0000D40500003108000000080000BF
:102AFC005F080000AE070000680900002F06000008
:102B0C0080060000AF0800004C070000FF09000021
:102B1C005C090000F4070000FB070000D50700006B
:102B2C00B205000041080000A8070000670700007C
:102B3C009109000083070000CB080000E2080000A8
:102B4C002708000044070000E00700008B06000087
:102B5C00C3070000CD0800001F0800008C0900000E
:102B6C00B908000037080000780700008C07000047
:102B7C00E006000085080000EA070000E9070000F5
:102B8C006508000078070000430800003F080000BB
:102B9C007308000011080000370800000B07000044
:102BAC007B070000C1070000ED070000E8080000EB
:102BBC008908000054080000DA070000CB07000069
:102BCC005B07000005080000EB070000EB070000A6
:102BDC0043080000DF070000DC040000B20900001D
:102BEC00E706000006080000BA0A00000F07000004
:102BFC00E80B0000CB0700008E0A0000F70700006E
:102C0C009207000019080000C606000087070000A4
:102C1C00E4070000020700007F09000061060000C5
:102C2C0048090000BD060000F8070000DF060000A0
:102C3C00200700002F070000AE070000DC07000093
:102C4C0090080000E0080000DA0800007C09000091
:102C5C00270800000C0900006D0700006C0800003C
:102C6C00000700000C0800009B070000160800007D
:102C7C004808000044080000E70700007A0800003C
:102C8C00E806000032080000BB060000BF07000089
:102C9C0082070000A707000077080000000800006A
:102CAC00F908000015080000D4080000FF07000018
:102CBC0053080000E1070000E7070000DF070000F1
:102CCC0006080000C407000064080000CD070000DF
:102CDC0072080000E70700009809000038070000A0
:102CEC00FB060000EE0800006306000072080000FE
:102CFC00E2070000A0070000A3090000290700005C
:102D0C00CC080000380800001A0700007D090000FC
:102D1C00F00600009F080000230800001B070000BD
:102D2C00FF0800006107000014080000CE08000036
:102D3C0031070000C30800008E0700008D0700005B
:102D4C0043080000460700004C0800004208000041
:102D5C00A20700009C080000EC070000F707000029
:102D6C00210800000D08000018080000EC07000006
:102D7C00B4090000020300002708000092060000BE
:102D8C00A40800008E060000690800005808000026
:102D9C00640700009A070000F10B0000DE0700003A
:102DAC00A70800004E080000A30600001907000049
:102DBC000B060000120A0000F1060000E0070000FC
:102DCC005F080000C5070000DA0600006209000079
:102DDC00DE080000FF080000E1060000DF0900002B
:102DEC00A0060000D5040000E3090000F60700006F
:102DFC0095060000850800001E0900009E060000D4
:102E0C0083070000F6090000830900007806000023
:102E1C00A00900003C080000540500000708000051
:102E2C00BB080000E1070000D30600009D0900006C
:102E3C009C0700008E060000CA0800007C090000F8
:102E4C00360700002B080000DE080000D106000049
:102E5C00AE060000FD070000AA0800006C07000089
:102E6C00A208000024080000EC070000FD07000089
:102E7C008C0800001A08000057080000FC0700002E
:102E8C00B607000088070000870700003308000021
:102E9C00DA070000560800001E080000EF070000CB
:102EAC00AD07000019080000E7070000310800001A
:102EBC00F40700002B080000C1070000C107000048
:102ECC003B080000D607000029080000F0070000AE
:102EDC00FE070000080800008C060000200A000015
:102EEC00FD0400001F030000550900007B090000D1
:102EFC00870D000039080000E7040000AE06000052
:102F0C002D050000550A0000610800004008000073
:102F1C00780900003C070000EF080000E6050000FF
:102F2C00760600008C080000D5080000D90A0000C5
:102F3C000B080000A506000070060000BB06000090
:102F4C00E00800007C080000E408000075080000A0
:102F5C00D60700008E0700007707000091070000DD
:102F6C009B070000260800007C0800006708000092
:102F7C00D207000087070000DA070000E207000014
:102F8C00640800002608000068080000F90700002B
:102F9C00710700002D080000BC0700003B08000072
:102FAC00F7070000BA0700000F080000E90700004F
:102FBC0002080000DA0700005E0700007708000036
:102FCC00750800007E0800000008000027070000BC
:102FDC00E2070000C8070000A10800003A08000042
:102FEC0098070000240800001308000011080000D6
:102FFC00AD0700009E0700006E08000045080000A9
:10300C0078080000D607000037070000F107000021
:10301C001908000059080000D30700000708000039
:10302C0025080000CB07000049080000DE0700005F
:10303C00E2070000340800001D08000043080000EF
:10304C0080070000C9070000FD070000F107000021
:10305C0065080000FD0700000C080000F9070000DF
:10306C00F0070000F9070000D90700000408000071
:10307C000A0800001B08000025080000E9070000F2
:10308C0050080000ED070000FC0700001F080000BE
:10309C00BB07000012080000D50700003B08000029
:1030AC00E4070000D0070000F5070000EF07000060
:1030BC000508000031080000060800001C0800008C
:1030CC00040800000B080000E6070000B40700002D
:1030DC0019080000E6070000BD070000B607000055
:1030EC0028080000B1070000840800004B0800000D
:1030FC00BE070000EF070000CF07000037080000F4
:10310C00CE0700001F08000032080000EB0700008B
:10311C001E080000D4070000B5070000D40700000B
:10312C002108000071080000F70700001B080000D0
:10313C000B080000C9070000E1070000FF070000B2
:10314C0010080000F90700001B0800000F08000021
:10315C00D2070000E7070000130800000E0800006B
:10316C0013080000F4070000EF070000E50700005B
:10317C0003080000F5070000F40700000808000031
:10318C00FE07000000080000F80700000608000019
:10319C00FE0700000908000017080000FE070000E9
:1031AC0004080000F0070000F0070000070800000A
:1031BC00010800000B080000FF07000010080000C9
:1031CC0007080000F807000002080000F8070000DC
:1031DC00FF070000FD070000250800003408000070
:1031EC0004080000ED070000F5070000F0070000E0
:1031FC00FD0700001C0800001F0800000708000065
:10320C00EA070000E1070000EE07000006080000D6
:10321C000508000032080000FE070000000800004E
:10322C00EA070000C9070000F90700000C080000BD
:10323C003108000027080000ED070000EF07000030
:10324C00E50700000108000017080000FE07000059
:10325C00280800000808000007080000F807000014
:10326C00D6070000010800000D0800001C08000033
:10327C0021080000D807000001080000FB0700002F
:10328C00F907000008080000EA0700001908000010
:10329C00F007000008080000FA070000EF07000024
:1032AC00070800001608000020080000FC070000BA
:1032BC00F0070000FD070000FC070000F907000004
:1032CC00FC070000FD0700000C0800000D080000C2
:1032DC0000080000DC0600000E070000410800009A
:1032EC0037090000CC090000E6080000BC0700000C
:1032FC00840600008E0600006B0700008F0800009B
:10330C00760900005A0900005C0800002F07000035
:10331C00A50600001B070000FE070000F1080000D6
:10332C003409000087080000C00700001F070000D8
:10333C000F070000970700006F080000DC08000072
:10334C00B0080000100800007707000045070000D7
:10335C008D070000260800001F080000E70700008A
:10336C00EB0700000C0800000B0800000D08000023
:10337C00F0070000F2070000E60700001508000047
:10338C000C08000010080000ED070000F807000012
:10339C00FB070000F6070000FB07000022080000F6
:1033AC002008000001080000F3070000E3070000FC
:1033BC00F8070000090800001608000008080000C3
:1033CC00E8070000F40700000008000002080000F5
:1033DC0015080000FC0500009A070000C10500005C
:1033EC003B0A0000FE060000FA05000083090000FD
:1033FC0053080000710B0000020700005305000089
:10340C00B30600009D070000A70A00008908000011
:10341C00F2070000AB070000300700004308000073
:10342C001D070000B2070000A008000033090000CF
:10343C00BC0800005F070000C90600005F07000021
:10344C002A08000082080000AA0800002B080000CF
:10345C001D080000D807000035070000CB0700004E
:10346C000B080000C70800009A0800008407000041
:10347C00F90700007B070000370800002D0800004A
:10348C00670700007D0800002A080000840800007F
:10349C00C4070000DA060000330800000F08000023
:1034AC00EB080000190800004F0700002B08000073
:1034BC00CF07000072080000AE0700006F07000085
:1034CC00740800001B0800007C080000A80700001E
:1034DC0046070000AC070000980A0000250A00000F
:1034EC00210500000C0A00000E070000380800003F
:1034FC0067080000AC040000D20A0000900800002D
:10350C00EE080000050900009D030000E208000021
:10351C00C807000068090000D00900007A05000007
:10352C006F0900003C070000270800007608000027
:10353C004A050000C2090000890800004709000084
:10354C004C08000030050000360800008F07000012
:10355C0028090000D308000033070000A40800006D
:10356C00F4060000CA080000410700001B07000019
:10357C00DF080000EA0700007F090000BA0700001E
:10358C00E4060000B60700005C0700004C090000D0
:10359C005D080000ED0700000B0800000B070000A1
:1035AC009C080000B3070000BD07000030080000B5
:1035BC00DB0700000E090000DB07000069070000B4
:1035CC00A407000091070000DB0800002A08000097
:1035DC00D907000039080000F4040000A70A000015
:1035EC00DD060000760500008C0B0000B20A00001E
:1035FC00C3060000100400004E090000D7070000AD
:10360C00F4070000A30A00009C070000B3050000AB
:10361C00D9060000050B00006B0700000E07000028
:10362C00DB08000042080000E20700004F07000022
:10363C00E10800005F06000075080000C7090000E3
:10364C00D1070000DC060000E606000011090000AE
:10365C00F4070000C4080000A3070000B307000033
:10366C00A30700007007000045090000E5070000F3
:10367C00CC070000760700008C0800001A08000038
:10368C00500700006E080000DD0700004108000034
:10369C000A080000620800007E0700001307000003
:1036AC0092080000980800005808000070070000FD
:1036BC00E6070000CF070000D90700007D080000D6
:1036CC001E080000D70700008D07000075080000D9
:1036DC000A080000B0090000490900005D0C000058
:1036EC00710700002F070000CD0400000708000040
:1036FC00790800009A080000210B00002608000041
:10370C00FE06000083050000C9070000B107000099
:10371C00A0080000480A0000C6080000E4070000EA
:10372C00E2050000C70700003B0700005A08000034
:10373C00D0090000E50800002D080000ED05000090
:10374C000008000052070000590800003F09000063
:10375C007508000025080000D2060000AD08000026
:10376C00B7070000E00700009E0800001D080000DD
:10377C00200800000A07000053080000D3070000CF
:10378C003E0800008B08000003080000D50700006D
:10379C00280700007208000004080000330800002D
:1037AC00110800003B080000B80700006507000086
:1037BC0055080000ED070000500800000D0800003F
:1037CC0034080000C40700007A0700005608000007
:1037DC00FB070000590A0000000600005C0A00000C
:1037EC001D060000E30800009A0800009706000080
:1037FC001F0B00002A060000640A00001F070000CF
:10380C0070070000FE06000026060000CA06000035
:10381C000B070000E0050000830800004E070000C5
:10382C008E0900004809000021080000340A00003D
:10383C000C070000E90900000D070000E307000079
:10384C00090800001C0700002109000050070000B7
:10385C0089080000C008000046070000DB080000D3
:10386C00640600000508000069060000A3070000BC
:10387C00AC07000063070000A6080000EE0700007C
:10388C003A0900006F080000B80800003F0800006B
:10389C00170800001308000046080000F507000098
:1038AC005F080000CB07000043080000D3070000AE
:1038BC0015080000E207000003080000950700004F
:1038CC00DC0700004A070000F6070000690700004B
:1038DC001608000030080000FC070000CE070000AE
:1038EC000C080000AA080000E4070000D70800003C
:1038FC0000080000F5070000CC07000023080000BA
:10390C00F9070000EA07000014080000470800004F
:10391C00C60700001F080000AB07000017080000D6
:10392C00BF070000EC070000F9070000BE0700000D
:10393C00FF070000150800004E0800001F080000DB
:10394C000C080000EC070000FA070000EC07000070
:10395C0030080000F107000005080000DD0700003A
:10396C000B0800001C080000F407000020080000F1
:10397C0012080000E2070000E5070000BF07000086
:10398C0002080000F30700002708000037080000B9
:10399C00FB070000F7070000ED0700001D08000002
:1039AC00040800000D08000004080000E6070000F1
:1039BC0007080000F2070000FB070000DF0700000B
:1039CC00010800000B0800000308000004080000B8
:1039DC007107000058080000F607000031080000CD
:1039EC009E080000AB07000056080000930700007B
:1039FC0041080000F2070000D40700005D08000039
:103A0C00FB07000020080000D9070000DD070000BC
:103A1C001F080000E70700004B080000E607000045
:103A2C00DB070000AE070000F8070000E10700000C
:103A3C0002080000ED0700002C080000250800001B
:103A4C000908000028080000CC0700002508000029
:103A5C00F107000018080000E3070000E60700006B
:103A6C000D0800000A08000023080000FE070000F3
:103A7C00ED0700000F080000E10700001608000029
:103A8C00DA070000F6070000E3070000FB07000060
:103A9C0002080000F20700001F08000001080000E7
:103AAC001E080000F307000010080000F6070000D5
:103ABC00FB0700000D080000F207000006080000DC
:103ACC00F40700000B080000F9070000F4070000E1
:103ADC00D7040000E909000006050000BB0800003F
:103AEC004B0600004A070000CF0900004108000007
:103AFC009E0B00004C07000055090000CC0600008E
:103B0C004F080000CD0800000B090000D20900008E
:103B1C001C080000FB0600006E06000020060000DA
:103B2C00720800006E070000D3090000C7060000F1
:103B3C007F07000079050000010700000D08000058
:103B4C00F6080000EB090000460800004C080000D5
:103B5C00D80600007B080000FE07000049090000A1
:103B6C00B508000099080000CE0700008607000089
:103B7C009D070000F907000006080000530800002C
:103B8C0069070000B4070000C4060000F407000039
:103B9C00680700007A080000F0070000DF0700004B
:103BAC00ED07000073070000870800000E080000F6
:103BBC00090900003D0800005A080000E707000052
:103BCC00F50700003008000028080000400800003D
:103BDC00E1080000050900004E060000BA080000CC
:103BEC003B0300000D090000E70400002A09000057
:103BFC001A08000055080000E10A0000DD0700006B
:103C0C008B0B00002107000037090000A007000003
:103C1C0025070000160800008D0600007C08000037
:103C2C00E0070000D60700002B090000B7060000D3
:103C3C00690900001C0600005F080000A0060000D7
:103C4C0076070000C207000071070000B8080000EA
:103C5C004A080000F1080000B108000076080000D6
:103C6C00340800002808000070070000110800004C
:103C7C005C0700004D080000D40700004A08000053
:103C8C003F080000FC07000007080000E6070000E2
:103C9C0051070000FE070000C20600002E080000BD
:103CAC005807000035080000470800000E08000007
:103CBC0001090000F7070000CA080000EF07000028
:103CCC00FB07000018080000850700001108000021
:103CDC009D090000560600009C08000043080000E7
:103CEC00F706000056090000430700008707000094
:103CFC006608000062060000B00800000108000021
:103D0C006F0700000F090000200700006308000087
:103D1C008A0800004007000031090000C7070000B6
:103D2C00F8070000C7080000CD060000AE08000030
:103D3C00AF070000AA070000E008000044070000DD
:103D4C004C0800000D0800002D070000B50800000D
:103D5C008A070000E707000003080000B80700000E
:103D6C0024080000CB0600007A080000420700007F
:103D7C00BC090000760700006F070000A3080000D4
:103D8C00C90B000000070000D8090000CD08000096
:103D9C005A0500001B0700004D060000E308000058
:103DAC007C060000D90800006908000051070000DB
:103DBC00BD070000FF090000DE0700008E090000AF
:103DCC002D080000B20700000907000035060000AE
:103DDC00360A00007F050000E8070000E00900003B
:103DEC00930700009A060000120900000709000062
:103DFC0005080000E607000089090000E406000041
:103E0C0072050000F70800000C070000C507000051
:103E1C00A008000005090000B207000060070000C0
:103E2C000A090000AC0800006107000060090000EE
:103E3C0026080000970600009E070000A907000056
:103E4C002C08000048070000FF0800005108000083
:103E5C0072070000C90700007E080000B4070000CC
:103E6C007808000027080000F3070000C8070000CE
:103E7C005B070000940800008C070000600800003D
:103E8C0068080000D0070000D707000025080000D4
:103E9C000E0800003E080000F9070000550800005D
:103EAC00C00700007C0700002E080000AE070000D1
:103EBC000D08000017080000F5070000F7070000C8
:103ECC00DC0700000A08000040080000BA070000E8
:103EDC00E4040000140200009F0C0000820A0000A1
:103EEC003F0D0000CD0800003A02000077060000EC
:103EFC00900500008B0A00000A0A0000D0070000A1
:103F0C006D0A000087060000E8070000910500001C
:103F1C00DA0400001B0A00005F090000990B000086
:103F2C00F9070000220500001907000061060000D7
:103F3C00DE090000C308000007080000FC080000B0
:103F4C000D070000AD080000DE060000E6060000CC
:103F5C007B080000CB0700008609000097070000D3
:103F6C0020070000A2070000B6070000140900009B
:103F7C004F080000D607000043080000A50700000A
:103F8C0038080000C10700006707000002080000A5
:103F9C0003080000B6080000460800008107000076
:103FAC00AE070000F9070000350800008C0800007F
:103FBC0014080000F9070000C00700009507000076
:103FCC0006080000BB0700001A0800003D080000AE
:103FDC00E507000063080000BF070000D6070000DB
:103FEC00E4070000CE070000AC0800000808000041
:103FFC00DA0700000208000067070000150800003F
:10400C00230800005C08000010080000B307000043
:10401C000F080000CD070000F70700000B08000098
:10402C00D1070000370800001D0800003B08000005
:10403C00F4070000A907000020080000E5070000B5
:10404C003808000003080000F6070000F207000023
:10405C00D707000019080000F1070000E80700006E
:10406C0025080000240800005C080000DA070000A6
:10407C00E807000013080000C40700001B0800003C
:10408C00ED0700000B080000CD070000FA07000048
:10409C001D0800000D080000F8070000360800009D
:1040AC00E70700003008000010080000D8070000E7
:1040BC00E9070000D507000017080000F907000009
:1040CC000A08000004080000E2070000B70700001F
:1040DC00790800004A08000060080000560800003B
:1040EC00CE070000F9070000730700001E0800004F
:1040FC0007080000E2070000840800000B0800001D
:10410C00FF070000CA070000AB07000036080000DC
:10411C00F70700007A08000011080000960700005D
:10412C00EC070000BA07000000080000F9070000C7
:10413C002508000046080000E20700000608000001
:10414C00FA070000D1070000400800000508000035
:10415C0009080000EA070000E4070000200800003E
:10416C00EF07000013080000F7070000E00700004D
:10417C0018080000020800000A080000FA070000F6
:10418C00EE070000FC070000E40700000C0800002C
:10419C000508000009080000FC07000003080000E7
:1041AC00000800001508000007080000FF070000C9
:1041BC00FE0700000C0800000A080000FC070000C5
:1041CC00F3070000F0070000FE070000F0070000F6
:1041DC00080800009C07000000080000B907000058
:1041EC00F30700005B0800002208000055080000DF
:1041FC00C8070000BD070000E5070000EE0700003F
:10420C004E0800001208000010080000F207000021
:10421C00C5070000F1070000F50700001B080000AF
:10422C00290800001B080000F9070000EF07000038
:10423C00DC070000F0070000FA070000030800008C
:10424C00260800000D080000FA070000E107000036
:10425C00E807000013080000140800000A0800001A
:10426C0003080000EB070000F20700000008000044
:10427C00F007000006080000E40700002408000016
:10428C001108000002080000F7070000E607000014
:10429C00090800000B08000007080000F3070000E5
:1042AC00E8070000090800000B08000001080000E6
:1042BC00FE070000F80700001108000005080000C8
:1042CC0000080000F0070000F0070000AD08000037
:1042DC002B0B0000E20A0000310800002707000049
:1042EC009D050000E906000013080000820800008C
:1042FC00920A0000150900006F0800000407000076
:10430C0083040000B40700006E0800009F0A000040
:10431C00E2090000C706000015080000180600009E
:10432C00C5070000EC07000025070000640A000028
:10433C00EA0800000F090000AB060000DE040000D4
:10434C00CA07000024080000A80A0000EE080000BC
:10435C00D1060000FF07000029070000D708000065
:10436C00B307000037070000EF0800002208000028
:10437C00280900007207000071060000D107000038
:10438C00EC070000C609000063080000630700008A
:10439C00CB0700003407000098080000C907000094
:1043AC009B0700004408000045080000DF080000DF
:1043BC009207000025070000B70700002208000044
:1043CC00F708000019080000A7070000920500007C
:1043DC00D90700003405000035050000E506000093
:1043EC00830B0000270B0000C60700005B080000D1
:1043FC00910600007F0700005E080000D409000051
:10440C00CB050000EF05000065080000E408000083
:10441C009B080000D6080000B009000061070000EE
:10442C0005080000180700007706000031060000A0
:10443C0021090000F2090000870800004108000073
:10444C0085070000B10700008F0700001409000069
:10445C0072070000DF06000044070000730800002C
:10446C00AD0800007508000004090000BA07000040
:10447C00D00700007F070000C0070000E306000023
:10448C00B0070000C2080000BE0800005A08000077
:10449C00C5070000FB070000A70700007C08000010
:1044AC00D307000074070000360700001E08000048
:1044BC00830800004508000072080000FC0700009B
:1044CC00060800009D070000170800008B0500007F
:1044DC00840900009F070000E3070000E7080000C4
:1044EC002B06000070090000B0070000E007000078
:1044FC0051090000BD06000041080000AE07000095
:10450C005E070000270900004B0700007F08000031
:10451C005B080000F40600001209000030070000E0
:10452C00BA070000BA0800006B070000CC080000B6
:10453C009D0700006D070000910800005F07000058
:10454C00C0080000490800001A07000049080000D4
:10455C00F007000003080000E8070000EF07000068
:10456C0018080000FD0700004F080000F1070000CC
:10457C00BE070000F6070000040800002208000037
:10458C00EB070000030800000A080000F007000019
:10459C0027080000F3070000CC07000010080000FB
:1045AC001308000021080000F9070000E7070000CD
:1045BC00FC070000DF0700001108000017080000CE
:1045CC00DC0700000B080000FD0700000C070000D2
:1045DC004D0D0000D1060000C3060000640700006A
:1045EC008A070000880300009B090000E00C000013
:1045FC003007000063070000270800009308000044
:10460C00F8050000820A0000C2070000B204000096
:10461C0035070000270A0000C1080000330700001E
:10462C003F0A0000A6070000EE060000DD070000B0
:10463C009D080000290500004A0700007F0A0000C1
:10464C00C408000098070000230800005F08000061
:10465C00D706000010090000290800001A07000006
:10466C00E00600003A080000AA080000E30700007A
:10467C00200900001B080000360800007807000025
:10468C001E080000C30600001A070000970800006F
:10469C00E2080000B0080000FA070000090800005A
:1046AC000C0700002F0800005B0800002E0800001B
:1046BC0031070000B607000032080000FA070000BE
:1046CC0088080000640800005908000098080000E1
:1046DC00E6070000C5050000D40500001607000021
:1046EC0043090000510A00000009000046080000C0
:1046FC00D406000085060000000700008E080000AC
:10470C00CA080000F608000092080000B507000077
:10471C00FC060000EE0600002908000069080000F5
:10472C00F1080000CB080000050800002A07000073
:10473C00350700008307000009080000A6080000E8
:10474C00D60800006C080000AC0700000708000049
:10475C00F8070000DB070000C2070000F3070000A9
:10476C00F60700000F0800001D080000F807000005
:10477C00100800001508000016080000E5070000EE
:10478C00FF0700000708000006080000F207000001
:10479C00FC070000EA070000F60700001B080000F9
:1047AC000D0800001008000002080000F6070000C9
:1047BC00E40700000B080000FE070000FD070000E6
:1047CC0004080000F70700006607000071070000EE
:1047DC00FA0A00004B0600002E0F0000C005000076
:1047EC00150C0000A1070000090800003F0900009B
:1047FC008E050000A5090000AF070000230700008C
:10480C00020A0000B20500001A0A00006805000048
:10481C00EF070000CB0600000F0600008207000027
:10482C00FC0600000F080000F30800007E080000E2
:10483C0067090000BF080000960800008809000006
:10484C00CB0600007C090000BF06000064080000D5
:10485C00EC0700000E08000076080000F2070000CC
:10486C001F08000033080000F90600004E08000085
:10487C007306000051080000DE0600001608000058
:10488C00F2070000AC0700002E090000DB07000057
:10489C0032090000AE070000780800002208000072
:1048AC000408000037080000CD070000EB070000EB
:1048BC004C080000EC07000075080000B60700006B
:1048CC0021080000D9070000B007000054070000C1
:1048DC00DA070000B90700001A0800007907000089
:1048EC009E08000015080000290800008D08000033
:1048FC0090070000E9070000B007000097080000CF
:10490C00FD0700001808000033080000BE07000077
:10491C00E80700002A080000180800001D08000025
:10492C00C40700007808000082070000F4070000AC
:10493C00B7070000EE070000230800001F08000066
:10494C00570800009B070000F10700000B0800004F
:10495C00210800003108000000080000FE070000DC
:10496C00F5070000EB0700001B080000D80700004B
:10497C0001080000220800001A08000003080000CB
:10498C00F6070000C807000009080000EF07000048
:10499C003E080000F9070000030800000F080000A3
:1049AC00070800002C080000FF07000006080000A4
:1049BC00CE070000E7070000C8070000FE07000054
:1049CC00000800000A0800005A0800000608000051
:1049DC000D080000D507000094070000E507000053
:1049EC0092070000350800000808000023080000AA
:1049FC007F080000FB07000047080000D5070000F7
:104A0C003308000025080000EC0700002E08000009
:104A1C00D107000002080000F2070000D0070000D8
:104A2C0001080000C107000025080000EC07000089
:104A3C000408000003080000D7070000F40700007A
:104A4C00F20700000708000004080000FB07000044
:104A5C000008000001080000F7070000070800002C
:104A6C000808000018080000110800001B080000CE
:104A7C0003080000F5070000F90700000308000018
:104A8C000008000013080000ED070000FA07000002
:104A9C00C507000008080000F0070000130800001C
:104AAC00190800000308000015080000ED070000BD
:104ABC0017080000EE07000008080000F7070000C8
:104ACC00EB070000EC0700006F060000C7050000B4
:104ADC00A20300004C0900003F080000340900004C
:104AEC00600B00004F070000C5070000BE06000069
:104AFC000A070000FC070000360A0000F30600005D
:104B0C00F60700003B0700003D060000740900009A
:104B1C00FD080000E009000028090000D40700008F
:104B2C0025050000F50600009B0600008F0800001C
:104B3C00990A00007C080000FD0800002A0700000C
:104B4C00E1060000C9060000790800006A070000B1
:104B5C005C080000B8070000480700008E08000041
:104B6C003B080000C40800005E0800002708000095
:104B7C00B9060000EB070000300700002508000014
:104B8C00C90800000D08000073080000CE070000E3
:104B9C00DC070000AE070000590800009B0700006E
:104BAC0008080000C1070000A6070000320800003A
:104BBC003908000077080000500800002E0800009B
:104BCC006807000014080000F90700006B0A0000D9
:104BDC00A10700008D0900000F070000010800006C
:104BEC00720700006A070000E00500009107000052
:104BFC000A050000A5080000A2050000A608000098
:104C0C002D08000010080000450A000003070000F2
:104C1C00860A0000B1060000AE0900005C07000027
:104C2C00E4070000870800002D070000BF08000003
:104C3C00BE07000039080000FE080000D80600007E
:104C4C000D0900000A06000022080000670600009B
:104C5C008F0700008F07000060070000FD080000B0
:104C6C00C60700006509000067080000D2080000B4
:104C7C004908000015080000CA070000F1070000F1
:104C8C008807000036080000E707000069080000EC
:104C9C00E707000038080000B10700000408000016
:104CAC005D070000E90700003A070000F807000064
:104CBC006307000018080000030800001D0800002E
:104CCC00B6080000F6070000F909000036060000DF
:104CDC008D0900000A080000BD06000056090000FE
:104CEC0059060000750800009A080000F006000044
:104CFC00C3090000E0060000A0080000FA0700004D
:104D0C00010700006F08000024070000E7070000FF
:104D1C006E0800008D070000D70800000608000090
:104D2C00F7070000D1080000490700008E080000BA
:104D3C00AF07000094070000600800005C0700004B
:104D4C003908000030080000E007000012080000DD
:104D5C00EB070000E6070000C7070000470600004D
:104D6C0014090000ED070000800A0000590700003C
:104D7C00960B0000E0080000AA0500005C0800008B
:104D8C007C050000DC070000C7060000DC09000001
:104D9C009C070000C30700007B07000028090000E7
:104DAC00290700000E0A0000140900006807000023
:104DBC008007000099060000870800008A060000A2
:104DCC00680900003C080000D2050000A90600009C
:104DDC004D0A000039070000A10700008E090000F1
:104DEC00E50900008206000057060000BC0900001F
:104DFC0066060000AC0700002F090000F108000057
:104E0C0019060000BF070000DC080000CF070000F7
:104E1C00480700003B0A0000C9070000910600008B
:104E2C006F080000F8070000BC0700004D070000E9
:104E3C008C090000780700002C0700008408000093
:104E4C00900800003A070000DB080000880800000A
:104E5C00BA070000C1070000A7070000E807000020
:104E6C00780700009E0800000C080000BB0700003B
:104E7C00F507000035080000CF070000800800008F
:104E8C002108000050080000A2070000CF07000016
:104E9C00380800008E07000060080000F2070000D0
:104EAC0005080000D80700000E080000E00700000D
:104EBC001D0800000808000044080000FC07000062
:104ECC00FE070000AC070000090A0000EF0A000012
:104EDC002F0A0000CB080000B2030000F10600000E
:104EEC00C30600001E090000080B0000410700006B
:104EFC00C509000030070000320700003907000028
:104F0C001B050000260A0000140900008F0A00008F
:104F1C0068080000940400000B07000095060000D0
:104F2C00BD090000680900007E070000660900004A
:104F3C00360700003208000004070000F5050000E9
:104F4C0022090000C3080000CC090000FA07000089
:104F5C0047060000F70700007D0700006809000005
:104F6C008A08000011070000400800009A070000A2
:104F7C00BF0800008B070000C20600006B08000091
:104F8C001D0800006C090000C20700000E0700009D
:104F9C00DC070000CB0700000B0900000208000032
:104FAC00A807000004080000E60700007B080000CA
:104FBC008F07000056070000290800002A0800008F
:104FCC00E1080000B807000073070000E1070000CB
:104FDC00D607000034080000CE0700001D080000B2
:104FEC00120800003708000017080000CF07000067
:104FFC0094070000F6070000580800002308000082
:10500C002C080000F4070000CE070000EE0700009B
:10501C00E70700004008000000080000DF07000060
:10502C0019080000BB070000FF070000FA0700008A
:10503C001108000026080000E907000040080000E5
:10504C00CF070000E2070000F0070000DD070000BA
:10505C0042080000140800000B080000DE070000E6
:10506C008A07000037080000A007000008080000AD
:10507C0006080000260800000B080000DB070000F3
:10508C00EE070000FB070000E607000061080000C7
:10509C0017080000DB0700000E080000DA0700000C
:1050AC0022080000BA0700000708000000080000F2
:1050BC00020800000408000005080000E6070000D4
:1050CC00220800006E08000063080000B107000011
:1050DC00EA070000FC070000C0070000CB07000037
:1050EC00190800002E0800000A08000044080000FF
:1050FC00C7070000E6070000CD0700003F080000CE
:10510C0040080000EC07000033080000CA0700004C
:10511C00EB070000E9070000FB0700001B0800007C
:10512C00DB0700003C080000DF070000E907000077
:10513C0022080000D207000008080000F007000059
:10514C002008000014080000C30700002708000016
:10515C00E70700001908000000080000FC07000029
:10516C0002080000F007000031080000F107000001
:10517C00D9070000FD070000090800001108000015
:10518C0005080000F50700000D080000E20700000C
:10519C0004080000E9070000F207000018080000EE
:1051AC001D08000011080000F3070000ED070000C7
:1051BC00F5070000000800001108000007080000B7
:1051CC0001080000E60700001408000009080000B0
:1051DC00BC07000038080000360800002A08000050
:1051EC00DE07000071070000E7070000020800005E
:1051FC006208000039080000D8070000F40700001E
:10520C00C40700001E080000FF070000FD07000097
:10521C00150800000508000020080000E407000045
:10522C00D2070000EC070000FE0700004108000058
:10523C000C080000FB070000D8070000F507000071
:10524C00FA070000F5070000020800000108000042
:10525C000D08000012080000EC070000EB0700002E
:10526C00F7070000140800001B080000F7070000F7
:10527C00F0070000F1070000090800001B080000FF
:10528C0008080000ED07000003080000FE070000FE
:10529C000B080000E8070000F7070000EE0700000D
:1052AC000D080000080800000708000006080000B0
:1052BC00F907000004080000FD0700000C080000BE
:1052CC00EE07000094090000690800003F07000089
:1052DC006A060000E6060000060800000B09000044
:1052EC004B090000A9080000C807000000070000D7
:1052FC00FE060000AA070000860800000009000056
:10530C00AB0800001008000064070000250700002F
:10531C009107000027080000B30800009E08000059
:10532C0048080000A2070000600700007C0700008E
:10533C00E107000066080000920800006508000004
:10534C00F0070000C5070000F7070000F907000090
:10535C00F307000000080000FE0700001908000019
:10536C000108000009080000F7070000FC07000016
:10537C00040800001308000010080000ED070000EE
:10538C00F1070000F00700000A0800000D080000FB
:10539C000D080000F9070000F207000002080000E9
:1053AC0004080000FB07000002080000FE070000D4
:1053BC000208000000080000F907000001080000C6
:1053CC00F70700000909000050050000050A00005D
:1053DC0074080000370A0000D4070000E303000043
:1053EC00EB07000086080000B40A0000EF0800007C
:1053FC00590500006708000053070000620900000F
:10540C00FC070000AB050000790900005308000000
:10541C00F30900005E0700002E050000980800004C
:10542C00C7070000500A00002508000035060000E0
:10543C007608000055070000810900007207000083
:10544C00A1060000F008000009080000CC090000CB
:10545C003307000063060000EC070000CA070000D9
:10546C00DD090000E607000086070000DE070000EB
:10547C0058070000F708000073070000A807000099
:10548C002A080000300800002109000084070000F1
:10549C005707000085070000DD070000F508000035
:1054AC0034080000FF070000A9070000B80700003F
:1054BC002A080000DF070000080800000B080000A5
:1054CC0030080000FF0600007C050000700500009D
:1054DC00DD0600003B0C00003608000063080000ED
:1054EC002B070000A5060000470A00008A050000F3
:1054FC0040080000F8070000FB070000610B0000EB
:10550C00440600008C070000E2060000D4060000F0
:10551C008C0A00002D070000C00800002C080000B9
:10552C00DC06000006090000CA060000D2070000D5
:10553C0089080000D90700003E090000A1070000FF
:10554C005C070000A6070000BA070000E607000091
:10555C00AD0800003C0800001E0800000708000011
:10556C00360700000D080000CC0700006C08000096
:10557C004D080000AB07000068080000C4070000DD
:10558C00050800009E0700005D070000BF08000032
:10559C005C080000A2080000840700000E07000051
:1055AC00260800002A080000A7080000E2070000F7
:1055BC0064070000410800002E080000520800009B
:1055CC00AC070000E10A0000F6070000FD02000035
:1055DC00260B00002709000006070000B608000093
:1055EC00070A00003A050000B9040000410C000055
:1055FC001009000053070000620700002508000096
:10560C007406000072070000340B000062070000F3
:10561C0096060000E1070000490900000B07000096
:10562C002E07000037090000C00700008B0800009F
:10563C0077080000AE070000120600000208000008
:10564C00D309000013090000AD0700001806000084
:10565C001208000043080000A20800008B0800009C
:10566C008007000078070000850700001F09000074
:10567C00D60700007207000000080000B708000001
:10568C005208000043070000D20700008307000007
:10569C0072080000D7080000550800002F07000012
:1056AC00130700008A08000055080000530800008A
:1056BC00B007000006080000CE070000F20700004B
:1056CC00DF020000B3070000D40700000808000048
:1056DC00CC0A0000EC090000700800002A0400004D
:1056EC007D080000080700006C070000130900008B
:1056FC00C0090000930900006A0500004C08000076
:10570C002207000072070000710800000F0900005A
:10571C00AA0800006A06000045090000AA0700005C
:10572C007E0700005A0700008A080000B10800003C
:10573C00490700005E090000A2070000BA0700003C
:10574C001107000052080000B3070000F206000029
:10575C00EB08000030080000740800004C07000043
:10576C001E080000DD0700004C070000D4080000F4
:10577C003C0800006C080000380700000608000018
:10578C00BF070000D90700009E0800004608000073
:10579C003A0800002607000027080000DD0700007B
:1057AC00E607000053080000320800005208000011
:1057BC0061070000FA070000C20700001B08000088
:1057CC00E108000031060000370500002D0900003B
:1057DC004F020000E60A00008A050000630A000080
:1057EC008A0A000066070000E00C0000C0050000FB
:1057FC00480B000025070000F20700009F0900007D
:10580C00FE050000D409000099060000FB0700000B
:10581C002F090000940500001A0A00003005000052
:10582C00D408000082060000950600006C080000F9
:10583C0042060000040900002A0800006B08000062
:10584C00460900007F080000A7080000AF08000010
:10585C00FE0700006C0800004B070000D907000091
:10586C00C3070000FD070000E2070000F507000079
:10587C001108000027080000630700002B08000037
:10588C00CA060000ED0700002B07000015080000F9
:10589C0006080000D30700001409000017080000D8
:1058AC00F30800000F0800005A0800001B08000055
:1058BC00BF0700002D080000AC070000F407000033
:1058CC00E2070000CC0700007E080000660700001D
:1058DC000C0800002F0800000908000069070000F0
:1058EC0035070000CF070000C0070000F2070000DA
:1058FC00820800000D0800001E08000007080000C8
:10590C001F08000022080000E707000070080000D4
:10591C00F707000009080000B4070000AA07000000
:10592C000808000039080000540800006108000055
:10593C00CE070000D8070000AE070000F0070000FB
:10594C0006080000D707000034080000F807000024
:10595C00070800001E080000060800001F080000D1
:10596C00EA07000025080000F2070000BB07000052
:10597C00FC070000ED0700001C080000FF070000FA
:10598C00FC070000F5070000C50700001C0800001C
:10599C00FC07000016080000E1070000F8070000F3
:1059AC000A080000D107000025080000E1070000EC
:1059BC000F080000F3070000130800001F08000088
:1059CC00F307000042080000CB0700000D080000A0
:1059DC00CC070000F107000048080000CC070000CD
:1059EC00CA07000009080000B807000014080000EE
:1059FC00A80700004408000010080000050800007B
:105A0C006D080000F50700001B080000DA07000015
:105A1C00FF07000006080000D30700004408000040
:105A2C00E6070000EA070000DE070000ED070000B3
:105A3C0022080000D407000044080000D207000030
:105A4C00F7070000EB070000FB070000010800004F
:105A5C00ED07000029080000140800001A080000D7
:105A6C000008000009080000FC07000007080000FF
:105A7C00120800000C080000F507000001080000E7
:105A8C00FE0700000A080000FC07000002080000E6
:105A9C00F6070000FF070000EF070000FB070000FF
:105AAC00E6070000F407000006080000FC070000F1
:105ABC00020800000008000008080000FC070000B5
