:020000040800F2
:1000000000200020D11C0008751300087713000899
:1000100000000000000000000000000000000000E0
:10002000000000000000000000000000791300083C
:1000300000000000000000007B1300087D13000892
:10004000211D0008211D0008211D0008211D000898
:10005000211D0008211D0008211D0008211D000888
:10006000211D0008211D0008211D0008211D000878
:10007000211D0008211D0008211D0008211D000868
:10008000211D0008211D000800000000211D00089E
:10009000211D0008211D0008211D0008211D000848
:1000A000211D0008211D0008211D0008211D000838
:1000B000211D000800000000211D000800000000B4
:1000C00010B5064C2378002B07D1054B002B02D02E
:1000D000044800E000BF0123237010BD3800002059
:1000E000000000007C1D0008044B10B5002B03D05D
:1000F0000349044800E000BF10BDC04600000000F6
:100100003C0000207C1D0008002243088B4274D371
:1001100003098B425FD3030A8B4244D3030B8B4208
:1001200028D3030C8B420DD3FF22090212BA030C11
:100130008B4202D31212090265D0030B8B4219D3F2
:1001400000E0090AC30B8B4201D3CB03C01A524112
:10015000830B8B4201D38B03C01A5241430B8B425A
:1001600001D34B03C01A5241030B8B4201D30B0343
:10017000C01A5241C30A8B4201D3CB02C01A52416A
:10018000830A8B4201D38B02C01A5241430A8B422D
:1001900001D34B02C01A5241030A8B4201D30B0216
:1001A000C01A5241CDD2C3098B4201D3CB01C01A30
:1001B000524183098B4201D38B01C01A524143093A
:1001C0008B4201D34B01C01A524103098B4201D328
:1001D0000B01C01A5241C3088B4201D3CB00C01A95
:1001E000524183088B4201D38B00C01A524143080D
:1001F0008B4201D34B00C01A5241411A00D2014632
:10020000524110467047FFE701B5002000F0F0F8BA
:1002100002BDC0460029F7D076E7704703460B437E
:100220007FD4002243088B4274D303098B425FD3EF
:10023000030A8B4244D3030B8B4228D3030C8B421B
:100240000DD3FF22090212BA030C8B4202D3121201
:10025000090265D0030B8B4219D300E0090AC30BD6
:100260008B4201D3CB03C01A5241830B8B4201D383
:100270008B03C01A5241430B8B4201D34B03C01A6C
:100280005241030B8B4201D30B03C01A5241C30AE4
:100290008B4201D3CB02C01A5241830A8B4201D355
:1002A0008B02C01A5241430A8B4201D34B02C01A3F
:1002B0005241030A8B4201D30B02C01A5241CDD2E4
:1002C000C3098B4201D3CB01C01A524183098B422F
:1002D00001D38B01C01A524143098B4201D34B0118
:1002E000C01A524103098B4201D30B01C01A52417B
:1002F000C3088B4201D3CB00C01A524183088B4202
:1003000001D38B00C01A524143088B4201D34B00EA
:10031000C01A5241411A00D201465241104670475C
:100320005DE0CA0F00D04942031000D34042534061
:1003300000229C4603098B422DD3030A8B4212D321
:10034000FC22890112BA030A8B420CD38901921153
:100350008B4208D3890192118B4204D389013AD090
:10036000921100E08909C3098B4201D3CB01C01A65
:10037000524183098B4201D38B01C01A5241430978
:100380008B4201D34B01C01A524103098B4201D366
:100390000B01C01A5241C3088B4201D3CB00C01AD3
:1003A000524183088B4201D38B00C01A5241D9D2EB
:1003B00043088B4201D34B00C01A5241411A00D26C
:1003C0000146634652415B10104601D34042002B68
:1003D00000D54942704763465B1000D3404201B5E7
:1003E000002000F005F802BD0029F8D016E770479C
:1003F0007047C046F0B5DE46454657464E46E0B526
:1004000087B0009201930B031B0B9B46CA0F4B0056
:10041000040080465B0D029200D198E07C4A934232
:1004200037D05946420FC9000A43802109041143BD
:10043000C2009046774A894692469A440023002497
:100440000393009E019F3B031B0B9B467B003000E8
:100450005B0DFD0F002B59D06D4A934248D0594691
:10046000720FC9000A438021090411438B46694970
:10047000F2008C4651466344CB1A9A460021029EF4
:100480006E40F6B20F2C00D9CEE0634BA4001B598E
:100490009F465A460243914600D090E09A46022376
:1004A000904608240393CCE7CB464246029D03992D
:1004B000022900D1DEE1032900D18DE0012900D01D
:1004C00079E12E0000220023002490461B052343DF
:1004D000F60733434046190007B0F0BCBB46B246AE
:1004E000A946A046F0BD002200249046484BEDE707
:1004F0005A46009B1A43494B9C46E244002A59D174
:1005000002231C43002302219B46B8E75A46009B66
:100510001A4349D05B46002B00D19CE1584600F0BD
:1005200095FD020003000B3A1D27009EBA1A190020
:100530005846D64008398840320002439346009A14
:100540008A40374953448A4600219A4497E75B46DC
:100550000343994621D05B46002B00D169E1584600
:1005600000F074FD0B235B429C4602008444664607
:100570001D239B1B260011005846DE400839884089
:1005800033000343994623008B409846254B0024B3
:100590009B1A9A460023039353E7002398469A46F2
:1005A0000133042403934CE701231C43002301215E
:1005B0009B4664E70323320003211C435FE79A460E
:1005C0000323D9460C2403933BE700238024984659
:1005D00000260F4B240379E780245B4624031C4349
:1005E00024032E0090460A4B240B6FE780244B46D1
:1005F0002403234202D05B462342F0D080244B46A2
:1006000024031C432403029E014B240B5EE7C046D7
:10061000FF07000001FCFFFF941D000801F8FFFF29
:10062000F30300000DFCFFFFCB4500D2F8E000D142
:10063000F3E001235B429C46444648460025E244E1
:100640005B46170E1B021F43190C3B041202009756
:100650001F0C914602910397FFF7DCFD02007A43DD
:100660000B04210C804619438A4209D9009F0123BB
:10067000BC465B4261449C46E0448F4200D85CE14A
:10068000881A0299FFF7C6FD039A2404424309041D
:10069000240C03000C43A24206D90099013B8C466E
:1006A0006444A14200D842E1A01A424612041A430F
:1006B00093464B4659461B0C1F0004930B044946B6
:1006C0000904090C0C001B0C5C43120C7B4388468C
:1006D00051437A43270CBC465B186344994203D9C3
:1006E000802149028C466244190C24041B04240C0A
:1006F0008A181C19904202D316D1A54214D25B4627
:10070000009F013B4D4405934D459B41BC465B42D8
:100710006344C018874200D302E1824200D929E134
:1007200000D124E1059B9B462C1BA542AD41009BBB
:10073000801A6D42401B834200D10FE10299FFF7FE
:1007400069FD039A0B044243210C050019438A42B8
:1007500000D9CBE0881A0299FFF75CFD039A2404C4
:1007600042430904240C03000C43A24200D9CAE00E
:100770004146A41A2A041A43049F13041B0C59432C
:1007800040467B439C46150C68430B0C84446344F1
:100790007D43984203D98020400284466544180C6A
:1007A00009041B04090C40195B18844227D323D089
:1007B000012335001A43944B5344002B60DD51074D
:1007C00000D086E02E00D1085A46D20106D55A46FE
:1007D0008E4B1A4080239346DB0053448C4A93424D
:1007E00000DD80E65A4652070A4390465A465B05AA
:1007F0005402240B5B0D69E63500002BDBD0009D15
:10080000511EAC466444AC4200D29EE0844200D209
:10081000E1E000D1EEE00A00CAE7424500D908E76E
:100820004B46DC07580843465B081C434346DD073C
:1008300006E700F00BFC15239C4684440200634647
:1008400020321C2B00DC92E62300083883409946B6
:10085000002398469AE600F0F9FB020003001532E7
:1008600020331C2A00DC5FE6009908388140002212
:100870008B4666E600222E0000249046654B25E656
:100880002E000121C91A382900DD1BE61F297EDC54
:100890006148140050445B4682408340CC40501E67
:1008A000824123431A435B46CB40510709D00F21B5
:1008B0001140042905D0111D9142924152429B18CA
:1008C0000A00190200D49BE0002201230024904674
:1008D000FCE50F211140042900D173E7111D91425D
:1008E000924152422E00C90893446DE7009B013D9E
:1008F0009C4661448B4200D92CE78A4200D829E704
:10090000851E614426E70099013B8C466444A14260
:1009100000D92DE7A24200D82AE7831E644427E7C6
:10092000874200D0FEE6A94500D9FBE6F5E6A242E3
:1009300000D8B9E6831E6444B6E68A4200D89FE632
:10094000BC46831E984661449AE60A00844200D061
:100950002EE74B4500D02BE735002CE72A4B2F4ADA
:100960005344924543DB0122002193442CE7AC42DF
:1009700000D8D7E602235B429C4600994D444D4582
:100980009B41E3448C465B426344C018CCE61F2085
:100990004042C31A5846D840202904D05946204B1B
:1009A000534499400A43531E9A41072319000243B6
:1009B00000241140134209D008331340042B1DD0EA
:1009C000131D934289411A0049424907D2080A433C
:1009D000904600237AE54946009F4D004D458941E8
:1009E000BC4649426144A946023A6418AEE7012276
:1009F000524246E79945EED30A00AAE70021E5E70F
:100A000059075B021C0BE1E7FF030000FFFFFFFE3D
:100A1000FE070000FF0700001E04000002FCFFFFAD
:100A20003E040000F0B557464E46DE464546E0B56A
:100A30001F000B031B0B16009A46CA0F4B00040045
:100A4000914685B05B0D00D1CFE1CD4A934255D0A0
:100A50005146420FC9000A43802109041143C200D4
:100A60009046C84A8A4693469B4400230025029339
:100A70003C037B00FA0F0196240B5B0D009200D122
:100A800088E1BF4A934200D192E0BE4A9446634453
:100A90009B440A2D42DCE400730F23438024494623
:100AA00024041C43F3000193009B00205940CBB267
:100AB0000393022D00DC94E00123AB401D00A6232C
:100AC0002A00DB001A401D4200D029E290239B003F
:100AD0001D4200D14DE20023802499462403A84BF7
:100AE00010004A461B052343D2071343190005B0E3
:100AF000F0BCBB46B246A946A046F0BD52460243F2
:100B0000904600D0ACE19B46022392460825029312
:100B1000AEE7009BA2469946019B9846029B022B9A
:100B200000D1CAE1032B00D192E1012B10D10023A7
:100B300000240022D4E701227B083A4013435246A6
:100B4000D2071343984653465B089A46039B99463F
:100B50005B46581C8023DB005B44002B00DCB1E1CA
:100B6000424652070BD00F2241460A40042A06D0C3
:100B70004246111D41459241884652429244524696
:100B8000D20106D55246804B1A4080239246DB00A4
:100B9000C3187E4A934200DD8FE14246D108524697
:100BA00052070A4351465B054C02240B5B0D97E745
:100BB000734B26439C46E344002E00D16FE1032390
:100BC00049461D43009B5940CBB203930A2D00DDDB
:100BD00033E10123AB401D000323029388222A4204
:100BE00097D1424643461204120C160001981D0C80
:100BF000030C0004000C4643B4461E006E430096EE
:100C0000160007005E436146B0466F430E0CB844C1
:100C10004644B74205D9802149028846009F47448F
:100C2000009761460904090C370C36048C463100E4
:100C3000614401911100260C2404240C61438C466C
:100C40002100694389466146090C884672434A443B
:100C500042447543914503D9802149028846454461
:100C6000110C884661460904090C8C461204624442
:100C7000B91802915146090C8C4651460F043F0C9D
:100C80003900414345448846614641438A464146CE
:100C90006046090C894658437B4353444B449A456C
:100CA00003D98021490289464844190C89464146A6
:100CB0000904090C8846390061431B0443448846F3
:100CC00061464C4371438C46414677430E0C3F19B5
:100CD000F6194844B44203D9802149028946CC44DC
:100CE0000299009F894631044F4489464146974204
:100CF00092410C04240C4C44FF1852426419A11870
:100D00009F429B41884682465B429946904592416C
:100D1000AC42A441C244D144524264421443994576
:100D20009B41824592415B42524213434A46360CF4
:100D3000A419E31863445B02D20D1A430199924649
:100D40007A020A43501E8241FF0D17434A4652025F
:100D50001743B846DB0100D5EDE60D4B039A5B4423
:100D60009146002B00DCACE03A00520700D110E7BE
:100D70000F2258463A40042A00D0F9E609E7C04657
:100D8000FF07000001FCFFFFFFFFFFFEFE07000062
:100D9000FF030000220032436FD0002C00D1C2E0DC
:100DA000200000F053F9020003000B3A1D20821AC4
:100DB00030001900D04008398C4002002243340032
:100DC0008C405946CB1A86498B469B440A2D00DD40
:100DD000A4E64946009B01945940CBB21400002080
:100DE0000393022D00DD67E6FBE653460343984676
:100DF0003CD05346002B00D1A3E0504600F026F92A
:100E00000B235B429C460200844411005046083983
:100E100088401D23804660461B1A2000D8400300EE
:100E2000404603439A4623008B4098466C4B00256E
:100E30009B1A9B46002302931AE60F2D00D0C9E0AF
:100E4000802352461B031A4202D01C4200D192E07A
:100E50008024534624031C4324034246240B3EE6CD
:100E60009B46032380460C25029301E600239A4605
:100E70009B46013304250293FAE501210D430A2D17
:100E800000DD4BE6494600984140C9B20391022D6E
:100E900000DC96E000230024012001930CE6494683
:100EA0000223009A2B435140CAB203920A2B00DD61
:100EB00034E6002D57D1039B994600240022494B6C
:100EC0000EE658460121C91A382900DD2FE61F29F0
:100ED00056DD1F2254465242D31ADC40202907D047
:100EE000414B42469C465346604483401A439046D9
:100EF00042460721531E9A410B002243134000240F
:100F0000114209D00F231340042B5DD0111D9142D3
:100F10009B410A005B425B07D2081A430023DFE5CE
:100F2000039B9946FAE5019800F090F8020003004F
:100F3000153220331C2A00DC38E7019A0838824039
:100F40003FE700F083F815239C4684440200634683
:100F500020321C2B00DC58E7002398462300083879
:100F600083409A4662E71D0000230024022001937B
:100F7000A2E5029032E61C43009B019A9946AEE539
:100F80001A4B5246C31840469A40C8400243404656
:100F900098400300581E834154461A43CC405307DF
:100FA00009D00F231340042B05D0131D9342924107
:100FB0005242A4181A00230208D50123002400225B
:100FC0008EE5894600248BE50023A5E763076402CC
:100FD000240BA1E7009BA2469946019B984637E760
:100FE0000DFCFFFFFF0700003E0400001E04000090
:100FF00070B5002816D0C317C5185D40C40F28006F
:1010000000F024F8104B1B1A5B055B0D0A2814DC5A
:1010100002002E00153296400B22121AD5402D03E5
:101020002D0B03E000240023002500261B052B4385
:10103000E40723433000190070BD0B3885402D03B1
:1010400000262D0BF2E7C0461E0400001C210123E0
:101050001B04984201D3000C10391B0A984201D39B
:10106000000A08391B09984201D30009043902A279
:10107000105C40187047C0460403020201010101E0
:10108000000000000000000010B588B0142200210C
:1010900003A800F046FE174B5A698021C9030A4392
:1010A0005A615A690A400092009A5A698021C9021D
:1010B0000A435A615A690A400192019A5A69802189
:1010C00089020A435A615B690B400293029B0A4CF6
:1010D0000022FF21200000F09FFDFF230393FE3B31
:1010E000049300230593069303A9200000F0D0FC8D
:1010F00008B010BD0010024000040048F0B5DE4604
:1011000057464E464546E0B589B000924A01521A0C
:1011100093019B1ADB005B189B0107934201121A93
:1011200093019B1ADB001B189B01984600260023A5
:101130000024049305940696C3465FE028006043AC
:101140003849FFF76BF848440500F41B5444012369
:101150009C46E044009B98450FDA334920006043E9
:10116000FFF75CF80600304928006843FFF756F89F
:10117000070032182D4B9A42E0DD46460296F317DF
:101180000393049B059C0299039A5B1854410493B2
:101190000594019B244A944663440193244B5B4489
:1011A000019A934225DD59460198FFF737F842012D
:1011B000121A93019B1ADB001B189B011D48584310
:1011C0001949FFF72BF81C4B9A4682440799069859
:1011D000FFF724F84201121A93019B1ADB001B1837
:1011E000DB01134A91469944002600250024B046AD
:1011F000B0E7069B0C4A944663440693079B0C4A4F
:1012000094466344069A934202DD00230193C5E7A6
:101210000498059909B0F0BCBB46B246A946A04661
:10122000F0BDC04620A1070040420F0000093D006C
:10123000C0BDF0FFE067350060DAD9FF72B6FEE7A7
:1012400000B591B03022002104A800F06AFD102200
:101250000021684600F065FD0223049301220792F5
:101260000F3208920C93A0239B030E9304A800F066
:10127000A1F800280ED107230093053B019300231A
:10128000029303930121684600F00CFB002803D170
:1012900011B000BDFFF7D2FFFFF7D0FFF0B5C64693
:1012A00000B500F0C1FBFFF7CBFFFFF7EDFE264BCB
:1012B0001E6A5D6A254B984601220121180000F044
:1012C000ABFC00F0CDFB224C2060224B1A682900B9
:1012D0003000FFF713FF204B1860596000F0C0FB8F
:1012E0001E4B18602468041B1D4B1C60FA218900EA
:1012F0002000FEF793FF1B4B43431B4A136028005B
:101300007043FFF775FE0022184BFFF78BFB0600BA
:101310000F002000FFF76CFE02000B0030003900C8
:10132000FFF768F8124B186059600122022140460D
:1013300000F072FCFA20C00000F098FB00220121AE
:10134000404600F069FCFEE7000000200004004871
:101350007800002028000020680000207400002091
:1013600070000020006CDC026000002000408F4014
:1013700058000020FEE7FEE77047704710B500F008
:1013800063FB10BD82B00A4B996901221143996138
:1013900099690A400092009ADA69802149050A4356
:1013A000DA61DB690B400193019B02B07047C046D4
:1013B0000010024070B582B0041E00D12EE2036816
:1013C000DB0726D5AE4B5A680C231340042B18D0EC
:1013D000AB4B5A680C231340082B0ED06368012BCB
:1013E0003CD0002B51D1A64B1A68A6490A401A607E
:1013F0001A68A5490A401A6036E0A14B5B68DB0316
:10140000ECD59F4B1B689B0303D56368002B00D171
:1014100007E223689B0772D5994B5B680C221A423E
:101420005DD0974B5A680C231340082B53D0E368C8
:10143000002B00D185E0924A136801210B43136011
:1014400000F00EFB05008E4B1B689B0770D400F06C
:1014500007FB401B0228F6D90320E0E1884A116807
:1014600080235B020B4313606368002B25D000F0E0
:10147000F7FA0500824B1B689B03CAD400F0F0FA10
:10148000401B6428F6D90320C9E1052B09D07C4B09
:101490001A687C490A401A601A687B490A401A6037
:1014A000E2E7774B19688022D2020A431A60196872
:1014B000802252020A431A60D6E700F0D1FA0500F2
:1014C0006F4B1B689B03A4D500F0CAFA401B64282D
:1014D000F6D90320A3E16A4B5B68DB03A7D4684B12
:1014E0001B689B0703D5E368012B00D09BE164498F
:1014F0000B68F82293432269D20013430B602368E0
:101500001B0744D5E369002B2ED05D4A536A0121A5
:101510000B43536200F0A4FA0500594B5B6A9B072A
:1015200035D400F09DFA401B0228F6D9032076E15D
:1015300053490B68F82293432269D20013430B608E
:10154000DDE74F4A136801218B43136000F088FAEE
:1015500005004B4B1B689B07D1D500F081FA401B5F
:101560000228F6D903205AE1454A536A01218B43E8
:10157000536200F075FA0500414B5B6A9B0706D584
:1015800000F06EFA401B0228F6D9032047E12368D9
:101590005B0700D480E03A4BDB69DB001DD4384B9D
:1015A000DA69802149050A43DA61DB690B4001935E
:1015B000019B0125354B1B68DB0510D5A368012B6A
:1015C00021D0002B36D12E4B1A6A01218A431A6290
:1015D0001A6A03318A431A621AE00025EAE72B4AA5
:1015E000116880235B000B43136000F039FA06009A
:1015F000264B1B68DB05E1D400F032FA801B64281F
:10160000F6D903200BE11E4A136A01210B43136232
:10161000A368002B24D000F023FA0600184B1B6AA5
:101620009B0737D400F01CFA801B194B9842F5D960
:101630000320F4E0052B09D0114B1A6A01218A43DB
:101640001A621A6A03318A431A62E1E70C4B1A6A7A
:1016500004210A431A621A6A03390A431A62D7E755
:1016600000F0FEF90600064B1B6A9B0712D500F03E
:10167000F7F9801B064B9842F5D90320CFE0C0460E
:1016800000100240FFFFFEFFFFFFFBFF0070004065
:1016900088130000012D33D02368DB0610D5636961
:1016A000012B33D0053351D1654A536B04218B4351
:1016B0005363536BF4318B43A169C9000B435363EC
:1016C000236A002B00D1B0E05D4A51680C220A4029
:1016D000082A00D18AE0022B4FD0594A1368594991
:1016E0000B40136000F0BCF90400554B1B689B01D4
:1016F0007AD500F0B5F9001B0228F6D903208EE058
:101700004F4AD36950490B40D361C5E74C4B5A6BE4
:1017100004210A435A635A6B03390A435A6300F09F
:101720009FF90500464B5B6B9B0706D400F098F9C8
:10173000401B0228F6D9032071E041494B6BF82287
:101740009343A269D20013434B63B9E73C4B5A6BF6
:1017500004210A435A635A6B03398A435A6300F0DF
:101760007FF90500364B5B6B9B07A9D500F078F934
:10177000401B0228F6D9032051E0314A1368314951
:101780000B40136000F06CF905002D4B1B689B01AA
:1017900006D500F065F9401B0228F6D903203EE08B
:1017A000274BDA6A0F218A43E16A0A43DA625A68F0
:1017B00026490A40A16A606A01430A435A601968CF
:1017C000802252040A431A6000F04AF904001C4BBC
:1017D0001B689B0106D400F043F9001B0228F6D9D0
:1017E00003201CE000201AE0002018E0012B1ED08E
:1017F000134B5A68D86A80235B021340616A8B429C
:1018000017D10F230340E16A8B4214D1F0239B03CD
:101810001A40A36A9A4210D1002000E0012002B0D1
:1018200070BD0120FBE70120F9E70020F7E7012068
:10183000F5E70120F3E70120F1E70120EFE7C046DB
:1018400000100240FFFFFFFEFFFFFFEFFFFFC2FFA0
:1018500010B5104B5A680C231340082B01D00E48CA
:1018600010BD910C073319400C48445C0949C96A02
:101870000B400B49C95CD20304D50748FEF744FC72
:101880006043EDE76201121B93019B1ADB001B19F9
:101890001802E5E70010024000127A00E41D00087B
:1018A000D41D000870B504000D00002800D17EE0B2
:1018B000434B1A68012313408B420AD240490B68FC
:1018C000012293432B430B600B681A40AA4200D0BD
:1018D0006FE023689A070ED55B0705D5394A516832
:1018E000E023DB000B435360364A5368F0218B43FF
:1018F000A1680B4353602368DB072DD56368012B78
:101900001ED0022B22D02F4A1268920753D52D49A0
:101910004A680320824313434B6000F0A1F806009D
:10192000284B5B680C221A4063689B009A4213D0D4
:1019300000F096F8801B244B9842F1D9032035E043
:10194000204A12689203E2D401202FE01D4A126857
:101950009201DCD4012029E0194B1A6801231340BD
:10196000AB4209D916490B68012293432B430B6004
:101970000B681A40AA4220D123685B0706D5114A9A
:10198000536812490B40E1680B435360FFF760FF57
:101990000C4B5A6812090F2313400D4AD35CD840F0
:1019A0000C4B1860032000F017F8002070BD0120D8
:1019B000FCE70120FAE70120F8E70120F6E7C0463E
:1019C000002002400010024088130000FFF8FFFFD3
:1019D000F41D00083400002010B504000F4B1978E6
:1019E000FA208000FEF790FB01000D4B1868FEF70F
:1019F0008BFB00F067F900280DD1032C01D90120E1
:101A00000AE0013000222100404200F057F9054B66
:101A10001C60002000E0012010BDC0462C0000200A
:101A2000340000203000002010B5064A1368102151
:101A30000B4313600320FFF7CFFFFFF7A3FC002049
:101A400010BDC04600200240034A1168034B1B78BA
:101A50005B1813607047C0467C0000202C000020FB
:101A6000014B18687047C0467C00002070B5040028
:101A7000FFF7F6FF0500631C02D0044B1B78E41847
:101A8000FFF7EEFF401BA042FAD370BD2C000020F0
:101A9000F0B583B0002356E086685F000324BC40A5
:101AA000A643CC68BC4034438460446894434E6889
:101AB0003609012232409A402243426053E0DE0858
:101AC0000836B600375805321A4092000F24944069
:101AD000A7430C69944022003A43325056E0032653
:101AE00000E00026A64034003C4302329200444EFF
:101AF0009451444A9768EA433E00AE434C68E4027E
:101B000001D53E002E433F4CA660E7683E001640DC
:101B10004C68A40201D53E002E433A4CE66067684B
:101B20003E0016404C68A40301D53E002E43354CC0
:101B30006660266832404C68E40301D52A003243CF
:101B4000304C226001330C682200DA4056D001226A
:101B50009A40250015401442F4D04E6803243440C6
:101B6000013C012C98D94C6803222240032A08D05A
:101B7000C4685E000322B24094438A68B2402243A4
:101B8000C2604C6803222240022A98D004685E009A
:101B900003221700B740BC434F683A40B24022438B
:101BA00002604C68C02292021442CBD0164CA66947
:101BB00001221643A661A46922400192019A9A0863
:101BC000941CA4000E4EA75903241C40A4000F2609
:101BD000A640B7439026F605B04282D00B4EB042E5
:101BE00008D00B4EB04207D00A4EB04200D176E783
:101BF000052677E7012675E7022673E703B0F0BDF7
:101C000000000140000401400010024000040048B0
:101C100000080048000C0048002A01D0816170478C
:101C20008162FCE770B5002811DB8308134DC033D7
:101C30009B005C5903221040C000FC321600864015
:101C4000B44389010A40824022435A5170BD0F2398
:101C50000340083B9B0806339B00094A94466344B3
:101C60005C6803221040C000FC3215008540AC4384
:101C700089010A40824022435A60E7E700E100E020
:101C800000ED00E0013880235B0498420FD2094A3E
:101C900050600948036A1B021B0AC02109060B4356
:101CA0000362002393600733136000207047012014
:101CB000FCE7C04610E000E000ED00E010B5FFF7E3
:101CC000B1FF10BD10B5FFF7DDFF10BD704700007C
:101CD0000D488546FFF7FAFF0C480D490D4A0023D1
:101CE00002E0D458C4500433C4188C42F9D30A4AD1
:101CF0000A4C002301E013600432A242FBD300F03F
:101D000019F8FFF7CBFAFEE70020002000000020C2
:101D1000380000200C1E0008380000208000002041
:101D2000FEE703008218934200D170471970013317
:101D3000F9E7000070B500260C4C0D4D641BA41093
:101D4000A64209D1002600F019F80A4C0A4D641B7E
:101D5000A410A64205D170BDB300EB5898470136D8
:101D6000EEE7B300EB5898470136F2E7041E00088F
:101D7000041E0008081E0008041E0008F8B5C0462E
:101D8000F8BC08BC9E467047F8B5C046F8BC08BC15
:041D90009E467047B4
:101D940028060008E6040008C4040008B00400088B
:101DA400C4040008CA050008C4040008B0040008FC
:101DB400E6040008E6040008CA050008B0040008A8
:101DC400A8040008A8040008A8040008EC050008FA
:101DD4000102030405060708090A0B0C0D0E0F1077
:101DE40002030405060708090A0B0C0D0E0F101058
:101DF40000000000000000000102030406070809B7
:041E0400E9000008E9
:041E0800C10000080D
:101E0C00800000008000000040010000F000000095
:101E1C0080020000E001000000050000D00200007C
:101E2C00800700003804000064000000010000007E
:081E3C000400000000127A000E
:0400000508001CD102
:00000001FF
